:020000040000fa
:080000000001040000000000f3
:020000040000fa
:040008001c020000d6
:020000040000fa
:04000c001c020000d2
:020000040000fa
:040010001c020000ce
:020000040000fa
:040014001c020000ca
:020000040000fa
:040018001c020000c6
:020000040000fa
:04001c001c020000c2
:020000040000fa
:040020001c020000be
:020000040000fa
:040024001c020000ba
:020000040000fa
:040028001c020000b6
:020000040000fa
:04002c001c020000b2
:020000040000fa
:040030001c020000ae
:020000040000fa
:04003400c8010000ff
:020000040000fa
:040038001c020000a6
:020000040000fa
:04003c001c020000a2
:020000040000fa
:040040001c0200009e
:020000040000fa
:040044001c0200009a
:020000040000fa
:040048001c02000096
:020000040000fa
:04004c001c02000092
:020000040000fa
:040050001c0200008e
:020000040000fa
:040054001c0200008a
:020000040000fa
:040058001c02000086
:020000040000fa
:04005c001c02000082
:020000040000fa
:040060001c0200007e
:020000040000fa
:040064001c0200007a
:020000040000fa
:040068001c02000076
:020000040000fa
:04006c001c02000072
:020000040000fa
:040070001c0200006e
:020000040000fa
:040074001c0200006a
:020000040000fa
:040078001c02000066
:020000040000fa
:04007c001c02000062
:020000040000fa
:040080001c0200005e
:020000040000fa
:040084001c0200005a
:020000040000fa
:04008800f80100007b
:020000040000fa
:04008c001c02000052
:020000040000fa
:040090001c0200004e
:020000040000fa
:040094001c0200004a
:020000040000fa
:040098001c02000046
:020000040000fa
:04009c001c02000042
:020000040000fa
:0400a0001c0200003e
:020000040000fa
:0400a4001c0200003a
:020000040000fa
:0400a8001c02000036
:020000040000fa
:0400ac001c02000032
:020000040000fa
:0400b0001c0200002e
:020000040000fa
:0400b4001c0200002a
:020000040000fa
:0400b8001c02000026
:020000040000fa
:0400bc001c02000022
:020000040000fa
:0400c0001c0200001e
:020000040000fa
:0400c4001c0200001a
:020000040000fa
:0400c8001c02000016
:020000040000fa
:0400cc001c02000012
:020000040000fa
:0400d0001c0200000e
:020000040000fa
:0400d4001c0200000a
:020000040000fa
:0400d8001c02000006
:020000040000fa
:040108001c020000d5
:020000040000fa
:04010c001c020000d1
:020000040000fa
:040110001c020000cd
:020000040000fa
:040114001c020000c9
:020000040000fa
:040118001c020000c5
:020000040000fa
:04011c001c020000c1
:020000040000fa
:040120001c020000bd
:020000040000fa
:040124001c020000b9
:020000040000fa
:040128001c020000b5
:020000040000fa
:04012c001c020000b1
:020000040000fa
:040130001c020000ad
:020000040000fa
:04013400c8010000fe
:020000040000fa
:040138001c020000a5
:020000040000fa
:04013c001c020000a1
:020000040000fa
:040140001c0200009d
:020000040000fa
:040144001c02000099
:020000040000fa
:040148001c02000095
:020000040000fa
:04014c001c02000091
:020000040000fa
:040150001c0200008d
:020000040000fa
:040154001c02000089
:020000040000fa
:040158001c02000085
:020000040000fa
:04015c001c02000081
:020000040000fa
:040160001c0200007d
:020000040000fa
:040164001c02000079
:020000040000fa
:040168001c02000075
:020000040000fa
:04016c001c02000071
:020000040000fa
:040170001c0200006d
:020000040000fa
:040174001c02000069
:020000040000fa
:040178001c02000065
:020000040000fa
:04017c001c02000061
:020000040000fa
:040180001c0200005d
:020000040000fa
:040184001c02000059
:020000040000fa
:04018800f80100007a
:020000040000fa
:04018c001c02000051
:020000040000fa
:040190001c0200004d
:020000040000fa
:040194001c02000049
:020000040000fa
:040198001c02000045
:020000040000fa
:04019c001c02000041
:020000040000fa
:0401a0001c0200003d
:020000040000fa
:0401a4001c02000039
:020000040000fa
:0401a8001c02000035
:020000040000fa
:0401ac001c02000031
:020000040000fa
:0401b0001c0200002d
:020000040000fa
:0401b4001c02000029
:020000040000fa
:0401b8001c02000025
:020000040000fa
:0401bc001c02000021
:020000040000fa
:0401c0001c0200001d
:020000040000fa
:0401c4001c02000019
:020000040000fa
:0401c8001c02000015
:020000040000fa
:0401cc001c02000011
:020000040000fa
:0401d0001c0200000d
:020000040000fa
:0401d4001c02000009
:020000040000fa
:0401d8001c02000005
:020000040000fa
:100200002f8d20000eff20000e018800000000004e
:10021000000020000000e000020032000001200089
:100220002002880014000700850007000000e0009d
:1002300003003a00c0f9210001002000020037004d
:100240000000200001002000810f7000010032003a
:1002500014000700000020000000e000020032004f
:100260000000020000000000ea1002000000000090
:100270000040da000000fe004440a900e00d20002c
:100280000000e0000300320000002000a001880010
:100290004440a800000006008a1f78008b1f7800e9
:1002a0000000060091018800800478000000eb0047
:1002b0001a003700e284440032a0b4009905ba0065
:1002c000e284440032a0b4009906ba00e2844400fb
:1002d00032a0b4000006eb00476fde00fd07b2005d
:1002e000636ce10003003a00ebff07000000eb0045
:1002f0000a003700606ce10004003a00005deb008a
:100300008b05e900fdff3e00040037006168e10055
:10031000010032000086eb000b00070019c7ba008d
:100320001905ba000e04e00003003a000a00e000dc
:10033000e0ff3a0000000600fe07b2009e018800c0
:100340008a047800f5ff3700395dba008b05e900b3
:100350000c003200295dba008b05e900080032006c
:100360000c00e00003003a00e284440032a0b40034
:10037000f5ff370019ddba008b05e900faff3a00f6
:100380008904e800e184440032a0b40000000600c3
:10039000809fbe003400f80000002000a00188000b
:1003a0000000fa00a01680004300de0061406000fb
:1003b0000004a200614060000080fb00610060005a
:1003c0004300dd00a11680000130a1000100700093
:1003d000a016880010c0b30037e8b7008460a900f9
:1003e0000080fa003400f9004f00be000040060013
:1003f0003600f800809fbe00829fbe00849fbe0032
:10040000869fbe003400f80000002000a001880094
:100410000000fa00a80407000080fa003400f90088
:100420004f03be004f02be004f01be004f00be0092
:100430003600f900004006000040da000000fe002f
:10044000000005001400200090033700f4ff2f0087
:100450008e0337000001be00220007000470a700d1
:1004600003f0a1006509b100160032000d0035004f
:100470006828e10006003500f0ff2f00f1ff27009b
:100480000300e00013003b0001002800000005000d
:1004900000004000818048008502e900fcff3a002e
:1004a00008003700f88f420002003c008000eb009b
:1004b000000005008100d1000080d3008502e80023
:1004c000fcff3a000300e00002003b006000100067
:1004d000e0801800000006004f89de0082017800ed
:1004e00085033700c70ade00f107b200f50fb2003e
:1004f00008003200e1cf4200020032000170a0008b
:1005000024000500810f700001003200040805007e
:1005100044000500810f700002003a00140005003d
:100520008502e9000000400081c04800fcff3b005c
:100530000170a0002400050007f827000783610070
:100540000638e10004003a00f707200087836100c5
:100550008703710001003a0003f0a200889fbe00eb
:100560008a9fbe008c9fbe00470ade000480a10067
:10057000c71ade000580a10007002800078560007b
:1005800087856100f70f20000720e1009e00320000
:100590000728e1009c003200010678000400e0001a
:1005a000b4003200f7072000878060000170a000cf
:1005b0000500e000c0003200f707200087816100dd
:1005c0000370a000050652000f003a000b50e10036
:1005d0000b0032000308e10002003a000200e100d3
:1005e0007e00320002045000838458000400310071
:1005f0000001fd008101fd008402fd008a05fd006f
:100600006044b800210037000520e10005003d00ee
:100610000001fd008101fd008402fd008a05fd004e
:10062000050652007a60e100050035000170a10066
:100630004722dd00848070008a80700063003700ec
:100640006044b800ef02660007ff2f00070666004f
:100650000500e00006003400f08312008714dd007e
:100660000511de00071bdd00060171008519de00a3
:100670007060e1000500350009047800820478000c
:10068000030178008001eb00700656000b50e1007a
:1006900003003a0002004000838048000400370055
:1006a00060041400e0841c0002005800838058009d
:1006b0000188a300060032008100d1000080d30031
:1006c0008984d3000884d3000402e800270037009f
:1006d0000178a30025003a000100e0000300320089
:1006e0008186cf00698656000a0037008c00200002
:1006f0000000e00004003a00090078008804780057
:100700000004eb00700252008086cf000d06460008
:100710000c06e9007060e1000600350080007800fa
:1007200009007800880478000004eb007006560089
:10073000700252000c00e0000c0034008c08dd0058
:10074000f00316000703de00868070000c00dd0059
:10075000074bde00060070008c4cdd000743de0016
:10076000868474000c44dd000c0252006120e1001c
:1007700020003500610160000700280087816400c7
:10078000f7ff270087836400070374000300e0007d
:100790000600320082037300040032000000e8000b
:1007a000e08048000188a3000e003a00f70f200007
:1007b0000720e1004a003d000170a1004722dd0052
:1007c000810072008a8070000000be004f06be00eb
:1007d0004f05be004f04be00000006006000b800d8
:1007e000faff37008100d1000080d3000402e80046
:1007f000eeff37000401780089017400a1010700b1
:100800008a807000f1ff3700f701070007027800c7
:100810000001fd008101fd00f3010700870278005f
:10082000850372000778a300040032000001fd0078
:100830008101fd0006020700e4ff37008503620026
:100840000768a300080032000b50e10003003200eb
:10085000f0ff2f00f1ff2700dcff37000001fd0053
:100860008101fd00d9ff37000468a300d7ff3200e3
:10087000faff3700f8ff2700888360000b003a007a
:100880000000e00009003a008303640082837300e3
:10089000020032000200be00ccff37000b50e10026
:1008a000ceff3a000200be00c8ff3700140020004f
:1008b000810064003eff3700f8ff27008883610055
:1008c00004003a000200e00002003a008c007800c8
:1008d000beff3700150020008301640039ff370098
:1008e00001f827000000200081007500b7ff3700e5
:1008f000889fbe008a9fbe008c9fbe001b00200008
:100900000202be0005866800060028000606660092
:100910004709de00f20fb200820032000243e80015
:1009200080003200c729de00f30fb2007d003200e4
:100930000343e8007b003200f107b2000170a00021
:10094000f507b2000570a000c708dd004903de000e
:10095000868070004700dd00c72add004923de00e5
:10096000868272004722dd00030551000403500017
:10097000858358000300310000004000818048005a
:100980000a05e9008c1f78008a9fbe000400500011
:10099000858058000402420085824a000000400021
:1009a000818048000005eb000004be006033b80001
:1009b0000406be000d48e100560031001100090098
:1009c0004dccd8000c01b8000d02b8008481410064
:1009d00060824a008283530003045c0084845c00cc
:1009e00060055d000a00e00025003a0080057800ff
:1009f0000d40e100490031008800780007007800d0
:100a0000110009004d88d8000c01b8000d02b80093
:100a10008481410060824a006003110083835b008f
:100a200004045c00e0845c000900e00021003a005e
:100a30004f01be000300e0002b003200e301600024
:100a4000070673008c8171000100320064007000a1
:100a50004200de004e5edd000c007000c258de0079
:100a600001e0a00083010700cf01780081807100c0
:100a70004f06be004f05be004f04be00000006003a
:100a80008c8343000d044c00e0844c0060054d0055
:100a90000000e9000a00e000d4ff32008c8343002c
:100aa0000d044c00e0844c0060054d000000e9009e
:100ab000ceff37000c0343008d834b0060044c00d5
:100ac000e0844c000000e9000900e000d8ff32009b
:100ad0000c0343008d834b0060044c00e0844c0009
:100ae0000000e900d2ff37004200de004e5edd006c
:100af0000c007000c258de0001e0a000cf017800b9
:100b00000300e000daff320060001000e08018000f
:100b1000d7ff3700f0ff2f00aaff3700f0ff2f00ac
:100b2000b9ff37000404be002f01070087067800d4
:100b30000004fd008104fd002b010700078366000f
:100b40000678a300030032000960a7000800be0079
:100b50002c0037000d78a300020032000800be0010
:100b6000280037000778a30026003a0001f0a10012
:100b700009f0a1000668a30003003200f1ff27007e
:100b8000f0ff2f00baff37000d68a300030032000a
:100b90000800be008c807000b5ff37000768a30016
:100ba00007003a000648a30003003200f1ff2700c7
:100bb000f0ff2f00aeff37000d48a3000300320006
:100bc0006000b8008c807000a9ff37000748a300c0
:100bd0000400320001f82700000020008c80700023
:100be000a3ff3700760107000004fd008104fd002b
:100bf00002057800720107000802be008a01780031
:100c000059ff37000160a0001202200082468800d0
:100c100097ff37000100e000120032000500e000fd
:100c200010003200889fbe008a9fbe008c9fbe00cd
:100c30000006eb0001f8a300030032006000100082
:100c4000e08018000cf0a00005f8a30003003200bb
:100c500060021200e0821a000cf0a2008005eb0096
:100c600041ff37006000b800020005000383680000
:100c70000700280007036300470ade000480a10084
:100c8000c71ade000580a100f70f20000720e10051
:100c9000420032000728e10040003200889fbe0079
:100ca0008a9fbe008c1f7800f107b200f307b200e4
:100cb0000400e000640032000170a0000500e000c4
:100cc000680032000370a00085054200eb07b10008
:100cd0000204b8000302b8008484440060854a001e
:100ce000020ab800848444000a854a00030ab80056
:100cf00004054500040033000804d0008984d200b4
:100d00000a85d2008b05e9006158e1003d003500fd
:100d100002102000090161000308200089816100a0
:100d2000f70720008783640008867300c84cde0044
:100d3000c853dd00878474004855de000300e000de
:100d40000600320082037600040032008904e800c5
:100d500060054d000a88a3000c003a00f70f200040
:100d60000758e10044003d000a70a100c75ddd00a6
:100d70000a8575008a007300090078004f06780024
:100d80004f05be004f04be00000006000a05d1005a
:100d90008984d3008b05e800f0ff3700881f7800b6
:100da0000604780090000700070278000001fd00ab
:100db0008101fd008c000700870278008503720026
:100dc0000778a300050032000001fd008101fd004d
:100dd0009f0007004f0478000000060085037200a2
:100de0000748a30003003200f0ff2f00f1ff2700a7
:100df000f8ff37000000200001f82700888070000d
:100e0000f4ff3700880178004848dd0080817100d8
:100e10004848de00c850dd0001007000c850de0008
:100e2000060478000b017800160007008880700027
:100e3000d2ff37000500e000050032001700200057
:100e40003a0007009dff370081037000f9ff3a0068
:100e5000860078004f0678004f05be004f04be00a4
:100e60000000050083037100f9ff32002700200015
:100e70002e00070094ff370001f8270086807000dd
:100e8000f4ff37000100e00026003200610111008c
:100e90007810e10023003c006022b8007010e100ef
:100ea0000400350080027800010078008000eb002b
:100eb000700151000200e0000900340070031100cd
:100ec000062add00822ade008603dd0087827200aa
:100ed0000200de00860bdd00070070008208de00e5
:100ee00084817100f4ff2700048262008481710014
:100ef00004002800848262006102600005f0a60000
:100f00000000060004827100070032000000e800c3
:100f1000e0804800000006000002be006000b8004b
:100f2000efff37006000b80000000600889fbe0099
:100f30000004eb006138e10016003a000100e00017
:100f400008003a00c800de004800dd0088002000ec
:100f50000100e00003003a00c800de004800dd00a8
:100f6000680444008184cf00e98454000600340002
:100f70008908dd00f08314008703de00878070009d
:100f80000900dd0009044400610214004f04be00a2
:100f9000000006000300e00008003a00c811de006f
:100fa0004811dd00880020000300e00003003a0043
:100fb000c811de004811dd00680444008384cf00be
:100fc000e9845400060034008919dd00f083140020
:100fd0008713de00878171000911dd0009044400d8
:100fe000e1021400e9ff37002700200001f0a7000c
:100ff00017002000470bde00f60fb200040032009d
:101000000643e8000a0032004702b3000000060071
:1010100001037800f607b2000603700002003a00f0
:101020000703b300000006008702b30000000600bb
:1010300001037800f607b2000603700002003200d8
:101040000770a000000006000760a0000000060076
:101050000478a300040032000578a30003003200e6
:101060000168a30001003a000200be000160a00078
:101070000000060081017000270032008002eb00b2
:1010800001f8a3000300320060001000e0801800a7
:1010900015002000f4072000020242002000340066
:1010a000f7032000870360000604200000036300ac
:1010b00002082000000161004700de00c909dd00d0
:1010c00000807100c708de000600e0000800320062
:1010d00087037100060032001000b0000180b000ec
:1010e0000188a30002003200c108de000402e8000b
:1010f000f107b200f30f20000320e10003003d00e0
:101100004722dd00810072002900370001f8270026
:101110000000eb00260037006000b8000000060069
:10112000680212007f20e100020034006000b80075
:101130001f0037006011b8007020e1000400350086
:1011400080017800010078008000eb0070025200fe
:101150000400e00009003400f00312000719dd006c
:101160008419de000703dd00868171000400de00c3
:10117000070bdd00060070008408de00f7ff270083
:101180008383630087037100060028000303630064
:10119000070032000700e00003003a006101600030
:1011a00002817300020032001000b0000180b00024
:1011b0000500a6000000060001f0a00000000600e7
:1011c0004f0ade004709de00f107b200f20fb2005d
:1011d0000b003200f207b1000170a000c708dd006b
:1011e000c901de00838070004700dd000400a60016
:1011f0000000060060001000e080180000000600fb
:10120000810f700001003a00000006008182cf00cb
:101210000500e00010003e008082cf00ee82420018
:101220007028e1000400390007003e0080007800cb
:101230000000eb000e003700708312008600de0015
:101240000500dd000a003700708352008600dd00d3
:101250000000eb0006003700e28252008508dd0046
:10126000708312000603de00868070000500dd003a
:101270007507b0000501ea000400a60000000600a2
:1012800060001000e080180000000600889fbe008b
:101290008a9fbe00841f78007c0007004f00780002
:1012a00011003300f0ff2f00838f6c0006003b001d
:1012b000040565000a00a7000800370009f0a60031
:1012c0001000200008003700820f5400838f5c005c
:1012d000030039001000200001003e000000200043
:1012e00009f0a7000000ea004f05be004f04be0051
:1012f0000000e00000000600881f7800030478006a
:101300000300e00007003d0060001000e0801800ce
:1013100060011900e081190002003b0001f02d007e
:10132000030037000400070008f0a70001f0a00048
:101330004f04780000000600889fbe008a9fbe0010
:1013400000827000040271000482710026003200e5
:101350000004be000200be006011b8006b0920004e
:10136000950220000182cf000a0039000541b1003a
:101370000082cf00070039000541b1000982cf008b
:10138000040039000541b1000882cf000100390096
:101390000541b10005425200120032000a003b0034
:1013a00082817100610164008100d1000080d3005e
:1013b0008984d3000884d3008b05e8000442e80048
:1013c000f7ff3a00070037000804440089844c0006
:1013d00000004800818048008b05e9000442e900d4
:1013e000f9ff3a00030007004f05be004f04be009e
:1013f0000000060081002000618055000b003d00c8
:101400000b00200061fe2f000100e1001d003400f0
:1014100082817100610164008904d1000884d300d5
:101420000000e800faff3a0071002000610064004b
:1014300003007000020060000900320061044400f3
:10144000e0844c000988a500050032008b05e80007
:101450006808e10002003a008904d1000884d30042
:10146000f20f20000258e10005003d00c75ddd00dd
:10147000f907b200898075000800780000000600b6
:101480000bf827008b007800000005000004be0068
:1014900014fc07000003be000405be000200be00ed
:0c14a00010fc0700844f750000000600df
:020000040000fa
:1014ac00496e000069630000696100006e64000011
:1014bc006f2000005369000073740000656d00001c
:1014cc00612000004469000066750000736f000025
:1014dc000a0000005265000066650000726500009d
:1014ec006e63000069610000203d000000450000b3
:1014fc00727200006f720000203d0000004400007a
:10150c0065720000697600006164000061200000d3
:10151c00646500006c20000045720000726f0000d2
:10152c00722000003d000000506500007274000045
:10153c00656e0000656e00006369000061200000ac
:10154c006e6500006761000074690000766f000032
:10155c00204d0000617900006f720000203d0000fa
:10156c000050000065720000746500006e6500009c
:10157c006e63000069610000206e0000656700006a
:10158c0061740000697600006f2000006d6500003a
:10159c006e6f0000722000003d00000050650000de
:1015ac0072740000656e0000656e000063690000d7
:1015bc006120000063650000726f0000203d000098
:1015cc000050000065720000746500006e6500003c
:1015dc006e63000069610000207000006f730000f2
:1015ec0069740000697600006f2000006d650000d2
:1015fc006e6f0000722000003d000000506500007e
:10160c0072740000656e0000656e00006369000076
:10161c0061200000706f00007369000074690000a5
:10162c00766f0000204d0000617900006f720000a1
:10163c00203d000000560000616c00006f7200003d
:10164c002064000065200000736100006c690000dc
:0c165c0064610000203d00000000000060
:020000040000fa
:101668000000fa001622ef001822ef000002200006
:10167800f0108800b010800000f0a000b0108800c2
:10168800c010800000a0a000c01088008f00a80033
:101698000105800080ff2f00008060006000b3001b
:1016a800000588008700a9000080fa0000000600f5
:1016b8000000fa008700a90000c8bf000001fb0075
:1016c800e010800080407800108020000000410079
:1016d8000148780000c8bf000040e80000e8b700f3
:1016e80000c8bf000000fb008000e9001080200057
:1016f8000080400010407800ea4f50000e00320091
:1017080000c8bf00f44f50001b003a000b00370020
:1017180000c8bf008000fb0010802000008040004f
:101728008040eb000148780000c8bf000040e80096
:1017380000e8b700010037000000000000c8bf0043
:10174800f44f5000f2ff3a001180200091407800d9
:10175800e0c2b30080cf50000600340011802000a2
:101768009140780030c4b30080cf500001003c00a5
:10177800030007000068ef000080fa000000060080
:101788000400fa0011c0b3000e80e8000148780098
:101798000040eb00004f780011c0b3000e80e80055
:1017a8000148780011c0b3000e00e8000148780035
:1017b8001b0037001e4078008e80e80091407800ba
:1017c8008180fb000088b90000007800004f780095
:1017d8000e00e800104078008080fb001080200098
:1017e80000804000104078009e40400000cdb300cb
:1017f80000cf40000e80e800104078006a00b90071
:10180800800078000e80e800014878000e00e800ab
:10181800104078008040e8000e00e8000148780099
:101828000e00e800104078008080fb001080200047
:101838000080400010407800ea4f5000ddff3a0079
:101848002180200091407800f0c2b30080cf500082
:101858000800320001c8bf000000fb00e2fd2f00b5
:10186800000141009e4078005081200000004100a6
:10187800014878000080fa00000006000200fa0023
:10188800000f7800040037001e0078001040780030
:10189800070007001e0fe8001e00780010407800bf
:1018a8000004e000f8ff3a000080fa00000006009b
:1018b8000200fa00004f780000000000c11080000c
:1018c80000102000008060000000e000fbff3200f4
:1018d8001e80fb00d01088000080fa00000006007f
:1018e8000400fa008e80e800804878000e80e80046
:1018f800104078000004e00007003d00d0c2b300ab
:10190800ebff07000e80e800104078008040ea00f6
:101918000e80e80001487800a0002000000f780041
:10192800040037001e0078006a00b9000000780043
:10193800000f78000e80e800104078000000fb00df
:101948009e00780001017800110009000200d8000b
:101958008000fd00800078000e80e80010407800cc
:101968000000fb00808f5000eeff3a001e01780057
:10197800706626000090b900c288de004f90de0035
:1019880000805000000f78001c0037000e80e8002f
:10199800104078000000fb009e00780001017800ec
:1019a800110009000200d800004078000043b00090
:1019b800bfff07000e80e800104078000000fb0021
:1019c8009e00780001017800110009000200d8008b
:1019d8008000fd00800078000e80e8000148780053
:1019e8001e017800706626000090b900c288de00eb
:1019f8004f90de0000805000000f78001e00780035
:101a08000000e000e1ff3c000080fa000000060052
:101a18000c00fa00881f7800680147000089be00a2
:101a280018c0b300680047006011b8001000be007d
:101a380082fa07000000e000010035000044eb00d6
:101a48000804e00007003200d0c2b30098ff070086
:101a5800680047001000be0001f0a20068014700be
:101a68000089be00680047001000be0077fa070032
:101a7800800078006400470001487800640047004f
:101a8800104078000000fb00cf80de0090fa0700cd
:101a9800680247000001be001400be00a4fa070057
:101aa800680147000089be00680047000200240062
:101ab800c36124001000be006afc070068014700eb
:101ac8000089be00680047001000be005ffa0700ea
:101ad8006601470000097800a10020000e80e80098
:101ae80001087800060037000e80e8001000780032
:101af8006a00b900800078000e80e80001087800cc
:101b080064004700104078000000fb008e80e80069
:101b18009100780001017800110009000200d80046
:101b28008000fd00800078006400470010407800c5
:101b38000000fb00808f5000ebff3a000e80e800a9
:101b480010017800706626000090b900c288de0097
:101b58004f90de00808050000e80e8000108780079
:101b680064004700104078000000fb00000f780078
:101b78001a0037009e0078000e80e80010007800f8
:101b880000017800110009008200d80000407800a8
:101b98000043b00046ff07009e0078000e80e80072
:101ba8001000780000017800110009008200d800b8
:101bb8008000fd00000f78000e80e800100178001a
:101bc800706626000090b900c288de004f90de00e3
:101bd800808050000e80e800010878000e80e80040
:101be800100078000000e000e2ff3c00e0c2b30013
:101bf8002fff0700813e20000e80e80001087800d2
:101c080066004700100f78001a0037009e00780021
:101c18000e80e8001000780000017800110009002b
:101c28008200d800004078000043b00020ff070081
:101c38009e0078000e80e80010007800000178000f
:101c4800110009008200d8008000fd00000f780014
:101c58000e80e80010017800706626000090b90038
:101c6800c288de004f90de00808050000e80e800c1
:101c7800010878000e80e800100078000000e000fd
:101c8800e2ff3c0000c2b30009ff07004f047800e0
:101c98000080fa00000006000000fa000080eb0057
:101ca800100888000021ef008460a90000012800c6
:101cb800200888008c60a800a1048000000027008c
:101cc80001007000a00488008460a9000080fa0068
:101cd800000006000000fa000080fa00000006007c
:101ce8000000fa000080eb0040158800cb62a900d4
:101cf800c762a8000080fa00000006000400fa008d
:101d08000040eb00004f78008040eb000e00e80038
:101d1800014878008040eb000e80e8000148780018
:101d28003768ef000021ef0030168000c622ef0070
:101d380050168000ca22ef0000f92500110020008b
:101d48006d0807003016800000b0a000301688002b
:101d58000300370037c8bf00e14f500006003200cb
:101d68004116800000802000008060000000e00034
:101d7800f8ff3a000100370000000000800c200046
:101d8800010020005c080700411680000080200048
:101d9800008060000000e00001003a001e4fe800eb
:101da8000019200001002000530807004116800098
:101db80000802000008060000000e0000600320083
:101dc8001e4fe8000500370037c8bf00e14f50003c
:101dd80008003200010037000000000041168000b2
:101de80000802000008060000000e000f6ff3a005c
:101df800010037000000000096000700cfe8b70098
:101e08009400070093000700cee8b7009100070090
:101e18009000070036e8b70037c8bf00e14f500010
:101e28000a003a0011c0b3000e00e800014878002b
:101e38003768ef000e80e800104078008040e80026
:101e48000e80e800014878000021ef000e00e8004d
:101e580010407800e14f500004003a000e80e8007e
:101e680010407800e54f5000afff36008040eb008f
:101e78000e00e800014878000e80e8001040780065
:101e8800e64f500005003a00ce68ef00cf68ef003b
:101e98008040eb000e80e80001487800cec8bf0003
:101ea80031e8b7000080fa00000006000400fa00dc
:101eb8000040eb00004f78008040eb000e00e80087
:101ec800014878008040eb000e80e8000148780067
:101ed8003768ef000021ef0030168000c622ef00bf
:101ee800c762a900cb62a90000f9250011002000f3
:101ef80001080700c762a8000300370037c8bf0001
:101f0800e14f50000600320041168000008020009a
:101f1800008060000000e000f8ff3a000100370090
:101f280000000000800c200001002000f2070700dc
:101f38004116800000802000008060000000e00062
:101f480001003a001e4fe80000192000010020009f
:101f5800e90707004116800000802000008060002b
:101f68000000e000060032001e4fe80005003700c0
:101f780037c8bf00e14f50000800320001003700a9
:101f880000000000411680000080200000806000f2
:101f98000000e000f6ff3a000100370000000000f2
:101fa8002c000700cfe8b7002a0007002900070027
:101fb800cee8b700270007002600070036e8b7007c
:101fc80037c8bf00e14f50000a003a0011c0b30003
:101fd8000e00e800014878003768ef000e80e8003e
:101fe800104078008040e8000e80e8000148780042
:101ff8000021ef000e00e80010407800e14f50008b
:1020080004003a000e80e80010407800e54f5000c8
:10201800b1ff36008040eb000e00e8000148780070
:102028000e80e80010407800e64f500005003a00a6
:10203800ce68ef00cf68ef008040eb000e80e8002c
:1020480001487800cec8bf0031e8b7000080fa0028
:10205800000006000200fa00881f78000040eb002c
:10206800004f780081c0b3000e00e80001487800f6
:102078000b0037001e80fb00000040000044780081
:102088000f00070000407400004f78000e00e800c1
:10209800104078008040e9000e00e8000148780010
:1020a8000e00e800104078000004e000f1ff3a005c
:1020b8001e4078004f0478000080fa0000000600f7
:1020c8000200fa000040eb00004f780003003700e0
:1020d80037c8bf00e14f50000600320041168000ab
:1020e80000802000008060000000e000f8ff32005f
:1020f800010037000000000010042000010020004b
:102108007d070700411680000080200000806000e5
:102118000000e000020032000040eb00004f7800b1
:10212800e006200001002000730707004116800028
:1021380000802000008060000000e0000d003200f8
:1021480010c0b300004f78000300370037c8bf0045
:10215800e14f500006003200411680000080200048
:10216800008060000000e000f8ff3a00010037003e
:10217800000000001e4078000080fa000000060001
:102188000200fa000040eb00004f7800e18c2000cc
:1021980091407800cfc8bf0080c040000e00e80022
:1021a8000148780036c8bf008e00e80091407800ea
:1021b80080cf500002003a0010c0b300004f7800f2
:1021c8001e4078000080fa00000006000000fa00b7
:1021d800d222ef00d622ef00d722a800aefe0700d9
:1021e8001ffd0700befe0700104e20006008880093
:1021f8000621ef0084c0a9001021ef008221ef0022
:10220800800c2000000c88008421ef00210c800045
:1022180080ff2f00008060006000b300200c880061
:102228008008800000f0a00080088800002d2100b0
:102238003101200030070700d722a90060a5280037
:102248008efd0700108020008cfd0700abfe070004
:1022580000a7280089fd070027c8bf00a0fd0700c8
:10226800a0c0b30092fd070089000700d0a728008e
:1022780082fd070038c8bf0099fd0700a0c0b30061
:102288008bfd070050a828007cfd070039c8bf0057
:1022980093fd0700a0c0b30085fd070040c5b3004b
:1022a80083fd070031c8bf008dfd070080c4b3005f
:1022b8007ffd0700cfc8bf008080fb00d0cc2c007a
:1022c8000008b8004308de00004078000043b00072
:1022d80077fd0700cfc8bf000081fb00d0cc2c00e1
:1022e8000010b8004308de006a00b900000078005a
:1022f80000005100004078000043b0006cfd07006a
:10230800a0c0b3006afd070038c8bf00740007000a
:10231800280207004c0507004046880051468800ff
:10232800a0a9280055fd0700e0418000f141800088
:10233800b7fd0700a0c0b3005dfd070070ab280023
:102348004efd07000042800011428000b0fd0700ea
:10235800a0c0b30056fd070040ad280047fd0700a8
:102368002042800031428000a9fd0700a0c0b300d0
:102378004ffd070070ae280040fd07004042800076
:1023880051428000a2fd0700a0c0b30048fd07002d
:1023980040b0280039fd070060428000714280008b
:1023a8009bfd0700a0c0b30041fd070010b2280044
:1023b80032fd0700404680005146800094fd07002a
:1023c800a0c0b3003afd0700404680005146800097
:1023d80002002000832c240043f9070004000700b2
:1023e8000068290081092000c306070095ff37000f
:1023f8000400fa00881f7800008fbe0018c0b300e0
:102408006011b8001e00be000cf807000000e000d4
:10241800010035000044eb000804e000050032002c
:102428001e00be0001f0a200008fbe00cc68ef00c5
:102438000200370010c0b300cce8b7001e00be0091
:1024480073fd070002002800034424001e00be009c
:1024580004fa070002002000033f24003df80700ab
:10246800faf7070000007800000c88006011b80037
:102478001e00be00f1f707000000e00001003a006e
:102488008021ef004f0478000080fa000000060069
:102498000000fa0027c8bf008040780031c8bf009c
:1024a80000c0500038e8b70038c8bf008000fb0003
:1024b8003ac8bf000000fb0000805000cf00de00db
:1024c800008040000080d1000040780039e8b70063
:1024d80038c8bf003ae8b7000080fa0000000600dc
:1024e8000200fa00004f78001e407800280007001c
:1024f800e0418800f14188001e407800450007004f
:1025080000428800114288001e4078006d000700d4
:1025180020428800314288001e4078009800070059
:1025280040428800514288001e407800c0000700e1
:10253800604288007142880039c8bf00dd0007008a
:10254800804288009142880039c8bf00fa0007001d
:10255800a0428800b142880039c8bf0022010700a4
:10256800c0428800d142880039c8bf004501070031
:10257800e0428800f142880039c8bf006c010700ba
:1025880000438800114388000080fa00000006001c
:102598000600fa00e400470080487800640047001d
:1025a80010407800e34f400004003d000000200088
:1025b80001f82300008fbe001300370064004700b5
:1025c80010407800e14f40000d003d0064004700d6
:1025d800104078000000fb00cf80de00bcf7070049
:1025e8000200200003f02b009ef9070002002000e3
:1025f80003f82300cef70700008fbe000200370063
:102608006000b800008fbe001e00be000080fa0007
:10261800000006000600fa00e40047008048780041
:102628006400470010407800e34f400003003d007d
:102638006000b800008fbe001f003700640047002c
:1026480010407800e14f40000d003d006400470055
:10265800104078000000fb00cf80de009cf70700e8
:102668000200200003f023007ef90700020020008a
:1026780003002400b7f70700008fbe000e003700e4
:1026880064004700104078000004e00008003d00a6
:1026980064004700104078000000fb000080ea005a
:1026a800cf80de008af70700008fbe0002003700e7
:1026b8006000b800008fbe001e00be000080fa0057
:1026c800000006000600fa00e40047008048780091
:1026d8006400470010407800e24f400003003d00ce
:1026e8006000b800008fbe00220037006400470079
:1026f80010407800e14f400008003d0064004700aa
:10270800104078000000fb000080e800cf80de0069
:102718006ff70700008fbe001600370064004700ff
:10272800104078000004e00004003c000000200095
:1027380001f82300008fbe000e0037006400470038
:10274800104078000004e00008003c0064004700e6
:10275800104078000000fb0062001000cf80de000f
:102768005bf70700008fbe00020037006000b8006a
:10277800008fbe001e00be000080fa0000000600a8
:102788000600fa00e400470080487800640047002b
:10279800104078000004e00003003d006000b8002d
:1027a800008fbe001f00370064004700104078000b
:1027b8000004e00008003c00640047001040780076
:1027c8000000fb000000e900cf80de0040f70700b2
:1027d800008fbe00130037006400470010407800e7
:1027e800e24f50000d003c006400470010407800a4
:1027f8000000fb00cf80de0035f707000200200054
:1028080003f02b0017f90700020020000300240042
:1028180050f70700008fbe00020037006000b800c4
:10282800008fbe001e00be000080fa0000000600f7
:102838000600fa00e400470080487800640047007a
:10284800104078000004e00003003c006000b8007d
:10285800008fbe0014003700640047001040780065
:10286800e24f50000d003c00640047001040780023
:102878000000fb00cf80de0015f7070002002000f3
:1028880003f02300f7f807000200200003f82300f4
:1028980027f70700008fbe00030037000000200064
:1028a80001f82300008fbe001e00be000080fa0061
:1028b800000006000600fa00e4004700804878009f
:1028c8006400470010407800e34f400004003d00da
:1028d8000000200001f82300008fbe00130037001d
:1028e8006400470010407800e14f40000d003d00b3
:1028f80064004700104078000000fb00cf80de0035
:10290800f3f607000200200003f02b00d5f80700bb
:102918000200200003f0230005f70700008fbe0027
:10292800020037006000b800008fbe001e00be0025
:102938000080fa00000006000600fa00e4004700e4
:10294800804878006400470010407800e34f40005a
:1029580003003d006000b800008fbe001f00370074
:102968006400470010407800e14f40000d003d0032
:1029780064004700104078000000fb00cf80de00b4
:10298800d3f607000200200003f02300b5f8070083
:102998000200200003fc2300eef60700008fbe00b3
:1029a8000e00370064004700104078000004e00083
:1029b80008003d0064004700104078000000fb005c
:1029c8000000ea00cf80de00c1f60700008fbe00dd
:1029d800020037006000b800008fbe001e00be0075
:1029e8000080fa00000006000600fa00e400470034
:1029f800804878006400470010407800e14f4000ac
:102a080003003d006000b800008fbe001a003700c8
:102a180064004700104078000004e00008003d0012
:102a280064004700104078000000fb000000e80048
:102a3800cf80de00a6f60700008fbe000e0037002c
:102a480064004700104078000004e00008003c00e3
:102a580064004700104078000000fb00610010008f
:102a6800cf80de009af60700008fbe000200370014
:102a78006000b800008fbe001e00be000080fa0093
:102a8800000006000600fa00e400470080487800cd
:102a980064004700104078000004e00003003d0097
:102aa8006000b800008fbe001e00370064004700b9
:102ab800104078000004e00007003c006400470074
:102ac800104078000000fb00cf80de0080f6070091
:102ad800008fbe00130037006400470010407800e4
:102ae800e24f50000d003c006400470010407800a1
:102af8000000fb00cf80de0075f607000200200012
:102b080003f02b0057f807000200200003fc230005
:102b180090f60700008fbe00020037006000b80082
:102b2800008fbe001e00be000080fa0000000600f4
:102b38000600fa00e4004700804878006400470077
:102b4800104078000004e00003003c006000b8007a
:102b5800008fbe0014003700640047001040780062
:102b6800e24f50000d003c00640047001040780020
:102b78000000fb00cf80de0055f6070002002000b1
:102b880003f0230037f807000200200003f02300b9
:102b980067f60700008fbe00030037000000200022
:102ba80001f82300008fbe001e00be000080fa005e
:102bb800000006000000fa00881f78006000b800d6
:102bc80020438800314388006000b80040438800f3
:102bd800514388006000b800604388007143880052
:102be8006000b80080438800914388006000b80006
:102bf800a0438800b14388006000b800c043880043
:102c0800d14388006000b800e0438800f1438800a1
:102c18006000b80000448800114488006000b800d3
:102c280020448800314488006000b800404488008f
:102c3800514488006000b8006044880071448800ee
:102c48006000b80080448800914488006000b800a3
:102c5800a0448800b14488006000b800c0448800df
:102c6800d14488006000b800e0448800f14488003e
:102c78006000b80000458800114588006000b80071
:102c880020458800314588006000b800404588002c
:102c9800514588006000b80060458800714588008b
:102ca8006000b80080458800914588006000b80041
:102cb800a0458800b14588006000b800c04588007c
:102cc800d14588006000b800e0458800f1458800db
:102cd8006000b80000468800114688006000b8000f
:102ce800204688003146880080428000914280005a
:102cf80018c0b3006011b800d2f507000000e0006a
:102d080001003c000044eb000804e000130032001e
:102d1800e0418000f141800018c0b3006011b800a4
:102d2800c8f507000000e00001003c000044eb008b
:102d38000804e000090032008042800091428000cf
:102d4800e4418000f54180000001be000400be009f
:102d5800190407002043880031438800a0428000fe
:102d6800b142800018c0b3006011b800b5f5070083
:102d78000000e00001003c000044eb000804e00013
:102d880013003200e0418000f141800018c0b30018
:102d98006011b800abf507000000e00001003c003e
:102da8000044eb000804e00009003200e041800024
:102db800f1418000a4428000b54280000001be00bd
:102dc8000400be00fc03070040438800514388000c
:102dd800c0428000d142800018c0b3006011b80022
:102de80098f507000000e00001003c000044eb00fb
:102df8000804e00013003200e0418000f141800047
:102e080018c0b3006011b8008ef507000000e0009c
:102e180001003c000044eb000804e0000900320017
:102e2800e0418000f1418000c4428000d54280002a
:102e38000001be000400be00df03070060438800f5
:102e480071438800e0428000f142800018c0b3005e
:102e58006011b8007bf507000000e00001003c00ad
:102e68000044eb000804e00013003200e041800059
:102e7800f141800018c0b3006011b80071f5070077
:102e88000000e00001003c000044eb000804e00002
:102e980009003200e0418000f1418000e4428000f6
:102ea800f54280000001be000400be00c203070016
:102eb80080438800914388000043800011438000cc
:102ec80018c0b3006011b8005ef507000000e0000c
:102ed80001003c000044eb000804e000130032004d
:102ee800e0418000f141800018c0b3006011b800d3
:102ef80054f507000000e00001003c000044eb002e
:102f08000804e00009003200e0418000f14180003f
:102f180004438000154380000001be000400be0089
:102f2800a5030700a0438800b143880080428000c1
:102f38009142800018c0b3006011b80041f5070045
:102f48000000e00001003c000044eb000804e00041
:102f580013003200004280001142800018c0b30004
:102f68006011b80037f507000000e00001003c00e0
:102f78000044eb000804e000090032000042800031
:102f88001142800084428000954280000001be000a
:102f98000400be0088030700c0438800d1438800ae
:102fa800a0428000b142800018c0b3006011b80090
:102fb80024f507000000e00001003c000044eb009d
:102fc8000804e00013003200004280001142800033
:102fd80018c0b3006011b8001af507000000e0003f
:102fe80001003c000044eb000804e0000900320046
:102ff8000042800011428000a4428000b542800057
:103008000001be000400be006b030700e043880017
:10301800f1438800c0428000d142800018c0b3004c
:103028006011b80007f507000000e00001003c004f
:103038000044eb000804e000130032000042800066
:103048001142800018c0b3006011b800fdf40700f9
:103058000000e00001003c000044eb000804e00030
:10306800090032000042800011428000c442800002
:10307800d54280000001be000400be004e030700d8
:103088000044880011448800e0428000f14280003a
:1030980018c0b3006011b800eaf407000000e000af
:1030a80001003c000044eb000804e000130032007b
:1030b800004280001142800018c0b3006011b800bf
:1030c800e0f407000000e00001003c000044eb00d1
:1030d8000804e0000900320000428000114280002c
:1030e800e4428000f54280000001be000400be00fa
:1030f80031030700204488003144880000438000e1
:103108001143800018c0b3006011b800cdf4070067
:103118000000e00001003c000044eb000804e0006f
:1031280013003200004280001142800018c0b30032
:103138006011b800c3f407000000e00001003c0083
:103148000044eb000804e00009003200004280005f
:103158001142800004438000154380000001be0036
:103168000400be001403070040448800514488004e
:10317800804280009142800018c0b3006011b800fe
:10318800b0f407000000e00001003c000044eb0040
:103198000804e00013003200204280003142800021
:1031a80018c0b3006011b800a6f407000000e000e2
:1031b80001003c000044eb000804e0000900320074
:1031c8002042800031428000844280009542800085
:1031d8000001be000400be00f7020700604488003a
:1031e80071448800a0428000b142800018c0b3003a
:1031f8006011b80093f407000000e00001003c00f3
:103208000044eb000804e000130032002042800074
:103218003142800018c0b3006011b80089f407007b
:103228000000e00001003c000044eb000804e0005e
:10323800090032002042800031428000a442800010
:10324800b54280000001be000400be00da0207009b
:103258008044880091448800c0428000d1428000a8
:1032680018c0b3006011b80076f407000000e00051
:1032780001003c000044eb000804e00013003200a9
:10328800204280003142800018c0b3006011b800ad
:103298006cf407000000e00001003c000044eb0073
:1032a8000804e0000900320020428000314280001a
:1032b800c4428000d54280000001be000400be0068
:1032c800bd020700a0448800b1448800e0428000a5
:1032d800f142800018c0b3006011b80059f407002b
:1032e8000000e00001003c000044eb000804e0009e
:1032f80013003200204280003142800018c0b30021
:103308006011b8004ff407000000e00001003c0025
:103318000044eb000804e00009003200204280006d
:1033280031428000e4428000f54280000001be0086
:103338000400be00a0020700c0448800d1448800f1
:10334800004380001143800018c0b3006011b8002a
:103358003cf407000000e00001003c000044eb00e2
:103368000804e0001300320020428000314280004f
:1033780018c0b3006011b80032f407000000e00084
:1033880001003c000044eb000804e00009003200a2
:1033980020428000314280000443800015438000b1
:1033a8000001be000400be0083020700e04488005c
:1033b800f1448800804280009142800018c0b30028
:1033c8006011b8001ff407000000e00001003c0095
:1033d8000044eb000804e000130032004042800083
:1033e8005142800018c0b3006011b80015f40700fe
:1033f8000000e00001003c000044eb000804e0008d
:10340800090032004042800051428000844280001e
:10341800954280000001be000400be00660207005d
:103428000045880011458800a0428000b142800014
:1034380018c0b3006011b80002f407000000e000f3
:1034480001003c000044eb000804e00013003200d7
:10345800404280005142800018c0b3006011b8009b
:10346800f8f307000000e00001003c000044eb0016
:103478000804e00009003200404280005142800008
:10348800a4428000b54280000001be000400be00d6
:10349800490207002045880031458800c042800065
:1034a800d142800018c0b3006011b800e5f30700ee
:1034b8000000e00001003c000044eb000804e000cc
:1034c80013003200404280005142800018c0b3000f
:1034d8006011b800dbf307000000e00001003c00c9
:1034e8000044eb000804e00009003200404280007c
:1034f80051428000c4428000d54280000001be00d5
:103508000400be002c020700404588005145880091
:10351800e0428000f142800018c0b3006011b8009a
:10352800c8f307000000e00001003c000044eb0085
:103538000804e0001300320040428000514280003d
:1035480018c0b3006011b800bef307000000e00027
:1035580001003c000044eb000804e00009003200d0
:103568004042800051428000e4428000f5428000e1
:103578000001be000400be000f020700604588007d
:1035880071458800004380001143800018c0b300d3
:103598006011b800abf307000000e00001003c0038
:1035a8000044eb000804e0001300320040428000b1
:1035b8005142800018c0b3006011b800a1f30700a1
:1035c8000000e00001003c000044eb000804e000bb
:1035d80009003200404280005142800004438000cc
:1035e800154380000001be000400be00f201070080
:1035f8008045880091458800804280009142800083
:1036080018c0b3006011b8008ef307000000e00096
:1036180001003c000044eb000804e0001300320005
:10362800604280007142800018c0b3006011b80089
:1036380084f307000000e00001003c000044eb00b8
:103648000804e000090032006042800071428000f6
:1036580084428000954280000001be000400be0044
:10366800d5010700a0458800b1458800a042800028
:10367800b142800018c0b3006011b80071f30700b0
:103688000000e00001003c000044eb000804e000fa
:1036980013003200604280007142800018c0b300fd
:1036a8006011b80067f307000000e00001003c006b
:1036b8000044eb000804e00009003200604280008a
:1036c80071428000a4428000b54280000001be0023
:1036d8000400be00b8010700c0458800d145880035
:1036e800c0428000d142800018c0b3006011b80009
:1036f80054f307000000e00001003c000044eb0028
:103708000804e0001300320060428000714280002b
:1037180018c0b3006011b8004af307000000e000c9
:1037280001003c000044eb000804e00009003200fe
:103738006042800071428000c4428000d54280000f
:103748000001be000400be009b010700e0458800a0
:10375800f1458800e0428000f142800018c0b300c3
:103768006011b80037f307000000e00001003c00da
:103778000044eb000804e0001300320060428000bf
:103788007142800018c0b3006011b8002df3070023
:103798000000e00001003c000044eb000804e000e9
:1037a800090032006042800071428000e4428000db
:1037b800f54280000001be000400be007e01070043
:1037c80000468800114688000043800011438000ad
:1037d80018c0b3006011b8001af307000000e00039
:1037e80001003c000044eb000804e0001300320034
:1037f800604280007142800018c0b3006011b800b8
:1038080010f307000000e00001003c000044eb005a
:103818000804e00009003200604280007142800024
:1038280004438000154380000001be000400be0070
:103838006101070020468800314688004f0478005f
:103848000080fa00000006000800fa00881f7800cf
:103858006000b800008fbe00204380003143800024
:1038680018c0b3006011b800f6f207000000e000cd
:1038780001003c000044eb000804e0001e003a0090
:10388800404380005143800018c0b3006011b80065
:10389800ecf207000000e00001003c000044eb00ef
:1038a8000804e00014003a0060438000714380007f
:1038b80018c0b3006011b800e2f207000000e00091
:1038c80001003c000044eb000804e0000a003a0054
:1038d800c0438000d143800018c0b3006011b80015
:1038e800d8f207000000e00001003c000044eb00b3
:1038f8000804e0001a00320062438000734380002d
:1039080040438000514380002643800037438000b5
:103918000202be000001be000600be003c01070016
:10392800640147000089be00c0438000d143800085
:103938006022b8000001be00640047001000be000d
:103948003301070002002000732c2c00c5f4070087
:103958000001be001e00be00fef20700008fbe0080
:10396800e0438000f143800018c0b3006011b80044
:10397800b4f207000000e00001003c000044eb0046
:103988000804e00014003a0000448000114480005c
:1039980018c0b3006011b800aaf207000000e000e8
:1039a80001003c000044eb000804e0000a003a0073
:1039b800604480007144800018c0b3006011b800f2
:1039c800a0f207000000e00001003c000044eb000a
:1039d8000804e00011003200624480007344800053
:1039e8000044800011448000e6438000f7438000d3
:1039f8000202be000001be000600be00040107006e
:103a08000200200083242c0096f407000001be0069
:103a18001e00be00cff20700008fbe00804380006a
:103a28009143800018c0b3006011b80085f2070008
:103a38000000e00001003c000044eb000804e00046
:103a480064003a00a0438000b143800018c0b3006e
:103a58006011b8007bf207000000e00001003c00a4
:103a68000044eb000804e0005a003a0020448000bb
:103a78003144800018c0b3006011b80071f207002b
:103a88000000e00001003c000044eb000804e000f6
:103a980050003a00404480005144800018c0b300f0
:103aa8006011b80067f207000000e00001003c0068
:103ab8000044eb000804e00046003a00804480001f
:103ac8009144800018c0b3006011b8005df207008f
:103ad8000000e00001003c000044eb000804e000a6
:103ae8003c003a00a0448000b144800018c0b300f4
:103af8006011b80053f207000000e00001003c002c
:103b08000044eb000804e00032003a00c0448000a2
:103b1800d144800018c0b3006011b80049f2070012
:103b28000000e00001003c000044eb000804e00055
:103b380028003a00004580001145800018c0b300f5
:103b48006011b8003ff207000000e00001003c00ef
:103b58000044eb000804e0001e003a002045800005
:103b68003145800018c0b3006011b80035f2070075
:103b78000000e00001003c000044eb000804e00005
:103b880014003a00a0458000b145800018c0b30079
:103b98006011b8002bf207000000e00001003c00b3
:103ba8000044eb000804e0000a003a00c045800029
:103bb800d145800018c0b3006011b80021f2070099
:103bc8000000e00001003c000044eb000804e000b5
:103bd800040032006011b8001e00be005df207004c
:103be800008fbe00e0448000f144800018c0b3009c
:103bf8006011b80013f207000000e00001003c006b
:103c08000044eb000804e00014003a00404580003e
:103c18005145800018c0b3006011b80009f20700d0
:103c28000000e00001003c000044eb000804e00054
:103c38000a003a00604580007145800018c0b30052
:103c48006011b800fff107000000e00001003c002f
:103c58000044eb000804e0001100320062458000d7
:103c6800734580004045800051458000e64480004f
:103c7800f74480000202be000001be000600be003c
:103c8800630007000200200083242400f5f30700e6
:103c98000001be001e00be002ef20700008fbe000d
:103ca800804580009145800018c0b3006011b800bd
:103cb800e4f107000000e00001003c000044eb00d4
:103cc8000804e0001e003a00e0458000f14580004d
:103cd80018c0b3006011b800daf107000000e00076
:103ce80001003c000044eb000804e00014003a0026
:103cf800004680001146800018c0b3006011b8006b
:103d0800d0f107000000e00001003c000044eb0097
:103d18000804e0000a003a0020468000314680008e
:103d280018c0b3006011b800c6f107000000e00039
:103d380001003c000044eb000804e0001a003200d7
:103d48000246800013468000e0458000f14580006f
:103d580086458000974580000202be000001be0033
:103d68000600be002a000700640147000089be0063
:103d780020468000314680006022b8000001be0065
:103d8800640047001000be00210007000200200068
:103d9800732c2400b3f307000001be001e00be0010
:103da800ecf10700008fbe001e00be004f04780033
:103db8000080fa00000006000800fa00881f78005a
:103dc800008fbe00640047000288be0018c0b30020
:103dd800640047001001be001e00be0097f10700f6
:103de8000000e000010035000044eb000804e0009a
:103df800020032001e00be000200370064004700c7
:103e08001000be004f0478000080fa000000060091
:103e18001000fa00881f780064034700008bbe007a
:103e2800680047000288be006c0047000488be0096
:103e380064004700301f78002017780018c0b300ce
:103e4800680047001e01be001000be007df107009b
:103e58000000e00001003c000044eb000804e00022
:103e68001300320068004700301f780020177800e0
:103e780018c0b3006c0047001e01be001000be0051
:103e880070f107000000e00001003c000044eb0076
:103e98000804e000030032006c0047001000be0078
:103ea80012003700680047001000be000f003700fe
:103eb80018c0b3006c0047001e01be001000be0011
:103ec80060f107000000e00001003c000044eb0046
:103ed8000804e000030032006c0047001000be0038
:103ee80002003700640047001000be004f0478004d
:083ef8000080fa000000060042
:020000040000fa
:103f0000f03fb1000180b10006003500ee0309006a
:103f100000000000403fb1000180b100fbff3d0008
:103f20001000b000203fb000020035000080090002
:083f3000000000000000060083
:020000040000fa
:103f380000080000ce00000000000000ce080000cd
:103f480002000000020000000a140000d00800006f
:0c3f58000200000000000000000000005b
:020000040000fa
:0200000401f009
:04000000e2bb00005f
:020000040000fa
:0200000401f009
:04000400ff7f00007a
:020000040000fa
:0200000401f009
:04000800ffff0000f6
:020000040000fa
:0200000401f009
:04001800ffff0000e6
:00000001FF
