:020000040000fa
:080000000001040000000000f3
:020000040000fa
:040008001c020000d6
:020000040000fa
:04000c001c020000d2
:020000040000fa
:040010001c020000ce
:020000040000fa
:040014001c020000ca
:020000040000fa
:040018001c020000c6
:020000040000fa
:04001c001c020000c2
:020000040000fa
:040020001c020000be
:020000040000fa
:040024001c020000ba
:020000040000fa
:040028001c020000b6
:020000040000fa
:04002c001c020000b2
:020000040000fa
:040030001c020000ae
:020000040000fa
:04003400c8010000ff
:020000040000fa
:040038001c020000a6
:020000040000fa
:04003c001c020000a2
:020000040000fa
:040040001c0200009e
:020000040000fa
:040044001c0200009a
:020000040000fa
:040048001c02000096
:020000040000fa
:04004c001c02000092
:020000040000fa
:040050001c0200008e
:020000040000fa
:040054001c0200008a
:020000040000fa
:040058001c02000086
:020000040000fa
:04005c001c02000082
:020000040000fa
:040060001c0200007e
:020000040000fa
:040064001c0200007a
:020000040000fa
:040068001c02000076
:020000040000fa
:04006c001c02000072
:020000040000fa
:040070001c0200006e
:020000040000fa
:040074001c0200006a
:020000040000fa
:040078001c02000066
:020000040000fa
:04007c001c02000062
:020000040000fa
:040080001c0200005e
:020000040000fa
:040084001c0200005a
:020000040000fa
:04008800f80100007b
:020000040000fa
:04008c001c02000052
:020000040000fa
:040090001c0200004e
:020000040000fa
:040094001c0200004a
:020000040000fa
:040098001c02000046
:020000040000fa
:04009c001c02000042
:020000040000fa
:0400a0001c0200003e
:020000040000fa
:0400a4001c0200003a
:020000040000fa
:0400a8001c02000036
:020000040000fa
:0400ac001c02000032
:020000040000fa
:0400b0001c0200002e
:020000040000fa
:0400b4001c0200002a
:020000040000fa
:0400b8001c02000026
:020000040000fa
:0400bc001c02000022
:020000040000fa
:0400c0001c0200001e
:020000040000fa
:0400c4001c0200001a
:020000040000fa
:0400c8001c02000016
:020000040000fa
:0400cc001c02000012
:020000040000fa
:0400d0001c0200000e
:020000040000fa
:0400d4001c0200000a
:020000040000fa
:0400d8001c02000006
:020000040000fa
:040108001c020000d5
:020000040000fa
:04010c001c020000d1
:020000040000fa
:040110001c020000cd
:020000040000fa
:040114001c020000c9
:020000040000fa
:040118001c020000c5
:020000040000fa
:04011c001c020000c1
:020000040000fa
:040120001c020000bd
:020000040000fa
:040124001c020000b9
:020000040000fa
:040128001c020000b5
:020000040000fa
:04012c001c020000b1
:020000040000fa
:040130001c020000ad
:020000040000fa
:04013400c8010000fe
:020000040000fa
:040138001c020000a5
:020000040000fa
:04013c001c020000a1
:020000040000fa
:040140001c0200009d
:020000040000fa
:040144001c02000099
:020000040000fa
:040148001c02000095
:020000040000fa
:04014c001c02000091
:020000040000fa
:040150001c0200008d
:020000040000fa
:040154001c02000089
:020000040000fa
:040158001c02000085
:020000040000fa
:04015c001c02000081
:020000040000fa
:040160001c0200007d
:020000040000fa
:040164001c02000079
:020000040000fa
:040168001c02000075
:020000040000fa
:04016c001c02000071
:020000040000fa
:040170001c0200006d
:020000040000fa
:040174001c02000069
:020000040000fa
:040178001c02000065
:020000040000fa
:04017c001c02000061
:020000040000fa
:040180001c0200005d
:020000040000fa
:040184001c02000059
:020000040000fa
:04018800f80100007a
:020000040000fa
:04018c001c02000051
:020000040000fa
:040190001c0200004d
:020000040000fa
:040194001c02000049
:020000040000fa
:040198001c02000045
:020000040000fa
:04019c001c02000041
:020000040000fa
:0401a0001c0200003d
:020000040000fa
:0401a4001c02000039
:020000040000fa
:0401a8001c02000035
:020000040000fa
:0401ac001c02000031
:020000040000fa
:0401b0001c0200002d
:020000040000fa
:0401b4001c02000029
:020000040000fa
:0401b8001c02000025
:020000040000fa
:0401bc001c02000021
:020000040000fa
:0401c0001c0200001d
:020000040000fa
:0401c4001c02000019
:020000040000fa
:0401c8001c02000015
:020000040000fa
:0401cc001c02000011
:020000040000fa
:0401d0001c0200000d
:020000040000fa
:0401d4001c02000009
:020000040000fa
:0401d8001c02000005
:020000040000fa
:10020000cf8520000eff20000e01880000000000b6
:10021000000020000000e000020032000001200089
:100220002002880014000700850007000000e0009d
:1002300003003a00a0232100010020000200370043
:100240000000200001002000810f7000010032003a
:1002500014000700000020000000e000020032004f
:100260000000020000000000740f02000000000007
:100270000040da000000fe004440a90040042000d5
:100280000000e0000300320000002000a001880010
:100290004440a800000006008a1f78008b1f7800e9
:1002a0000000060091018800800478000000eb0047
:1002b0001a003700e284440032a0b4009905ba0065
:1002c000e284440032a0b4009906ba00e2844400fb
:1002d00032a0b4000006eb00476fde00fd07b2005d
:1002e000636ce10003003a00ebff07000000eb0045
:1002f0000a003700606ce10004003a00005deb008a
:100300008b05e900fdff3e00040037006168e10055
:10031000010032000086eb000b00070019c7ba008d
:100320001905ba000e04e00003003a000a00e000dc
:10033000e0ff3a0000000600fe07b2009e018800c0
:100340008a047800f5ff3700395dba008b05e900b3
:100350000c003200295dba008b05e900080032006c
:100360000c00e00003003a00e284440032a0b40034
:10037000f5ff370019ddba008b05e900faff3a00f6
:100380008904e800e184440032a0b40000000600c3
:10039000809fbe003400f80000002000a00188000b
:1003a0000000fa00a01680004300de0061406000fb
:1003b0000004a200614060000080fb00610060005a
:1003c0004300dd00a11680000130a1000100700093
:1003d000a016880010c0b30037e8b7008460a900f9
:1003e0000080fa003400f9004f00be000040060013
:1003f0003600f800809fbe00829fbe00849fbe0032
:10040000869fbe003400f80000002000a001880094
:100410000000fa005b0407000080fa003400f900d5
:100420004f03be004f02be004f01be004f00be0092
:100430003600f900004006000040da000000fe002f
:10044000000005001400200090033700f4ff2f0087
:100450008e0337000001be00220007000470a700d1
:1004600003f0a1006509b100160032000d0035004f
:100470006828e10006003500f0ff2f00f1ff27009b
:100480000300e00013003b0001002800000005000d
:1004900000004000818048008502e900fcff3a002e
:1004a00008003700f88f420002003c008000eb009b
:1004b000000005008100d1000080d3008502e80023
:1004c000fcff3a000300e00002003b006000100067
:1004d000e0801800000006004f89de0082017800ed
:1004e00085033700c70ade00f107b200f50fb2003e
:1004f00008003200e1cf4200020032000170a0008b
:1005000024000500810f700001003200040805007e
:1005100044000500810f700002003a00140005003d
:100520008502e9000000400081c04800fcff3b005c
:100530000170a0002400050007f827000783610070
:100540000638e10004003a00f707200087836100c5
:100550008703710001003a0003f0a200889fbe00eb
:100560008a9fbe008c9fbe00470ade000480a10067
:10057000c71ade000580a10007002800078560007b
:1005800087856100f70f20000720e1009e00320000
:100590000728e1009c003200010678000400e0001a
:1005a000b4003200f7072000878060000170a000cf
:1005b0000500e000c0003200f707200087816100dd
:1005c0000370a000050652000f003a000b50e10036
:1005d0000b0032000308e10002003a000200e100d3
:1005e0007e00320002045000838458000400310071
:1005f0000001fd008101fd008402fd008a05fd006f
:100600006044b800210037000520e10005003d00ee
:100610000001fd008101fd008402fd008a05fd004e
:10062000050652007a60e100050035000170a10066
:100630004722dd00848070008a80700063003700ec
:100640006044b800ef02660007ff2f00070666004f
:100650000500e00006003400f08312008714dd007e
:100660000511de00071bdd00060171008519de00a3
:100670007060e1000500350009047800820478000c
:10068000030178008001eb00700656000b50e1007a
:1006900003003a0002004000838048000400370055
:1006a00060041400e0841c0002005800838058009d
:1006b0000188a300060032008100d1000080d30031
:1006c0008984d3000884d3000402e800270037009f
:1006d0000178a30025003a000100e0000300320089
:1006e0008186cf00698656000a0037008c00200002
:1006f0000000e00004003a00090078008804780057
:100700000004eb00700252008086cf000d06460008
:100710000c06e9007060e1000600350080007800fa
:1007200009007800880478000004eb007006560089
:10073000700252000c00e0000c0034008c08dd0058
:10074000f00316000703de00868070000c00dd0059
:10075000074bde00060070008c4cdd000743de0016
:10076000868474000c44dd000c0252006120e1001c
:1007700020003500610160000700280087816400c7
:10078000f7ff270087836400070374000300e0007d
:100790000600320082037300040032000000e8000b
:1007a000e08048000188a3000e003a00f70f200007
:1007b0000720e1004a003d000170a1004722dd0052
:1007c000810072008a8070000000be004f06be00eb
:1007d0004f05be004f04be00000006006000b800d8
:1007e000faff37008100d1000080d3000402e80046
:1007f000eeff37000401780089017400a1010700b1
:100800008a807000f1ff3700f701070007027800c7
:100810000001fd008101fd00f3010700870278005f
:10082000850372000778a300040032000001fd0078
:100830008101fd0006020700e4ff37008503620026
:100840000768a300080032000b50e10003003200eb
:10085000f0ff2f00f1ff2700dcff37000001fd0053
:100860008101fd00d9ff37000468a300d7ff3200e3
:10087000faff3700f8ff2700888360000b003a007a
:100880000000e00009003a008303640082837300e3
:10089000020032000200be00ccff37000b50e10026
:1008a000ceff3a000200be00c8ff3700140020004f
:1008b000810064003eff3700f8ff27008883610055
:1008c00004003a000200e00002003a008c007800c8
:1008d000beff3700150020008301640039ff370098
:1008e00001f827000000200081007500b7ff3700e5
:1008f000889fbe008a9fbe008c9fbe001b00200008
:100900000202be0005866800060028000606660092
:100910004709de00f20fb200820032000243e80015
:1009200080003200c729de00f30fb2007d003200e4
:100930000343e8007b003200f107b2000170a00021
:10094000f507b2000570a000c708dd004903de000e
:10095000868070004700dd00c72add004923de00e5
:10096000868272004722dd00030551000403500017
:10097000858358000300310000004000818048005a
:100980000a05e9008c1f78008a9fbe000400500011
:10099000858058000402420085824a000000400021
:1009a000818048000005eb000004be006033b80001
:1009b0000406be000d48e100560031001100090098
:1009c0004dccd8000c01b8000d02b8008481410064
:1009d00060824a008283530003045c0084845c00cc
:1009e00060055d000a00e00025003a0080057800ff
:1009f0000d40e100490031008800780007007800d0
:100a0000110009004d88d8000c01b8000d02b80093
:100a10008481410060824a006003110083835b008f
:100a200004045c00e0845c000900e00021003a005e
:100a30004f01be000300e0002b003200e301600024
:100a4000070673008c8171000100320064007000a1
:100a50004200de004e5edd000c007000c258de0079
:100a600001e0a00083010700cf01780081807100c0
:100a70004f06be004f05be004f04be00000006003a
:100a80008c8343000d044c00e0844c0060054d0055
:100a90000000e9000a00e000d4ff32008c8343002c
:100aa0000d044c00e0844c0060054d000000e9009e
:100ab000ceff37000c0343008d834b0060044c00d5
:100ac000e0844c000000e9000900e000d8ff32009b
:100ad0000c0343008d834b0060044c00e0844c0009
:100ae0000000e900d2ff37004200de004e5edd006c
:100af0000c007000c258de0001e0a000cf017800b9
:100b00000300e000daff320060001000e08018000f
:100b1000d7ff3700f0ff2f00aaff3700f0ff2f00ac
:100b2000b9ff37000404be002f01070087067800d4
:100b30000004fd008104fd002b010700078366000f
:100b40000678a300030032000960a7000800be0079
:100b50002c0037000d78a300020032000800be0010
:100b6000280037000778a30026003a0001f0a10012
:100b700009f0a1000668a30003003200f1ff27007e
:100b8000f0ff2f00baff37000d68a300030032000a
:100b90000800be008c807000b5ff37000768a30016
:100ba00007003a000648a30003003200f1ff2700c7
:100bb000f0ff2f00aeff37000d48a3000300320006
:100bc0006000b8008c807000a9ff37000748a300c0
:100bd0000400320001f82700000020008c80700023
:100be000a3ff3700760107000004fd008104fd002b
:100bf00002057800720107000802be008a01780031
:100c000059ff37000160a00012022000d242880084
:100c100097ff37000100e000120032000500e000fd
:100c200010003200889fbe008a9fbe008c9fbe00cd
:100c30000006eb0001f8a300030032006000100082
:100c4000e08018000cf0a00005f8a30003003200bb
:100c500060021200e0821a000cf0a2008005eb0096
:100c600041ff37006000b800020005000383680000
:100c70000700280007036300470ade000480a10084
:100c8000c71ade000580a100f70f20000720e10051
:100c9000420032000728e10040003200889fbe0079
:100ca0008a9fbe008c1f7800f107b200f307b200e4
:100cb0000400e000640032000170a0000500e000c4
:100cc000680032000370a00085054200eb07b10008
:100cd0000204b8000302b8008484440060854a001e
:100ce000020ab800848444000a854a00030ab80056
:100cf00004054500040033000804d0008984d200b4
:100d00000a85d2008b05e9006158e1003d003500fd
:100d100002102000090161000308200089816100a0
:100d2000f70720008783640008867300c84cde0044
:100d3000c853dd00878474004855de000300e000de
:100d40000600320082037600040032008904e800c5
:100d500060054d000a88a3000c003a00f70f200040
:100d60000758e10044003d000a70a100c75ddd00a6
:100d70000a8575008a007300090078004f06780024
:100d80004f05be004f04be00000006000a05d1005a
:100d90008984d3008b05e800f0ff3700881f7800b6
:100da0000604780090000700070278000001fd00ab
:100db0008101fd008c000700870278008503720026
:100dc0000778a300050032000001fd008101fd004d
:100dd0009f0007004f0478000000060085037200a2
:100de0000748a30003003200f0ff2f00f1ff2700a7
:100df000f8ff37000000200001f82700888070000d
:100e0000f4ff3700880178004848dd0080817100d8
:100e10004848de00c850dd0001007000c850de0008
:100e2000060478000b017800160007008880700027
:100e3000d2ff37000500e000050032001700200057
:100e40003a0007009dff370081037000f9ff3a0068
:100e5000860078004f0678004f05be004f04be00a4
:100e60000000050083037100f9ff32002700200015
:100e70002e00070094ff370001f8270086807000dd
:100e8000f4ff37000100e00026003200610111008c
:100e90007810e10023003c006022b8007010e100ef
:100ea0000400350080027800010078008000eb002b
:100eb000700151000200e0000900340070031100cd
:100ec000062add00822ade008603dd0087827200aa
:100ed0000200de00860bdd00070070008208de00e5
:100ee00084817100f4ff2700048262008481710014
:100ef00004002800848262006102600005f0a60000
:100f00000000060004827100070032000000e800c3
:100f1000e0804800000006000002be006000b8004b
:100f2000efff37006000b80000000600889fbe0099
:100f30000004eb006138e10016003a000100e00017
:100f400008003a00c800de004800dd0088002000ec
:100f50000100e00003003a00c800de004800dd00a8
:100f6000680444008184cf00e98454000600340002
:100f70008908dd00f08314008703de00878070009d
:100f80000900dd0009044400610214004f04be00a2
:100f9000000006000300e00008003a00c811de006f
:100fa0004811dd00880020000300e00003003a0043
:100fb000c811de004811dd00680444008384cf00be
:100fc000e9845400060034008919dd00f083140020
:100fd0008713de00878171000911dd0009044400d8
:100fe000e1021400e9ff37002700200001f0a7000c
:100ff00017002000470bde00f60fb200040032009d
:101000000643e8000a0032004702b3000000060071
:1010100001037800f607b2000603700002003a00f0
:101020000703b300000006008702b30000000600bb
:1010300001037800f607b2000603700002003200d8
:101040000770a000000006000760a0000000060076
:101050000478a300040032000578a30003003200e6
:101060000168a30001003a000200be000160a00078
:101070000000060081017000270032008002eb00b2
:1010800001f8a3000300320060001000e0801800a7
:1010900015002000f4072000020242002000340066
:1010a000f7032000870360000604200000036300ac
:1010b00002082000000161004700de00c909dd00d0
:1010c00000807100c708de000600e0000800320062
:1010d00087037100060032001000b0000180b000ec
:1010e0000188a30002003200c108de000402e8000b
:1010f000f107b200f30f20000320e10003003d00e0
:101100004722dd00810072002900370001f8270026
:101110000000eb00260037006000b8000000060069
:10112000680212007f20e100020034006000b80075
:101130001f0037006011b8007020e1000400350086
:1011400080017800010078008000eb0070025200fe
:101150000400e00009003400f00312000719dd006c
:101160008419de000703dd00868171000400de00c3
:10117000070bdd00060070008408de00f7ff270083
:101180008383630087037100060028000303630064
:10119000070032000700e00003003a006101600030
:1011a00002817300020032001000b0000180b00024
:1011b0000500a6000000060001f0a00000000600e7
:1011c0004f0ade004709de00f107b200f20fb2005d
:1011d0000b003200f207b1000170a000c708dd006b
:1011e000c901de00838070004700dd000400a60016
:1011f0000000060060001000e080180000000600fb
:10120000810f700001003a00000006008182cf00cb
:101210000500e00010003e008082cf00ee82420018
:101220007028e1000400390007003e0080007800cb
:101230000000eb000e003700708312008600de0015
:101240000500dd000a003700708352008600dd00d3
:101250000000eb0006003700e28252008508dd0046
:10126000708312000603de00868070000500dd003a
:101270007507b0000501ea000400a60000000600a2
:1012800060001000e080180000000600889fbe008b
:101290008a9fbe00841f78007c0007004f00780002
:1012a00011003300f0ff2f00838f6c0006003b001d
:1012b000040565000a00a7000800370009f0a60031
:1012c0001000200008003700820f5400838f5c005c
:1012d000030039001000200001003e000000200043
:1012e00009f0a7000000ea004f05be004f04be0051
:1012f0000000e00000000600881f7800030478006a
:101300000300e00007003d0060001000e0801800ce
:1013100060011900e081190002003b0001f02d007e
:10132000030037000400070008f0a70001f0a00048
:101330004f04780000000600889fbe008a9fbe0010
:1013400000827000040271000482710026003200e5
:101350000004be000200be006011b8006b0920004e
:10136000950220000182cf000a0039000541b1003a
:101370000082cf00070039000541b1000982cf008b
:10138000040039000541b1000882cf000100390096
:101390000541b10005425200120032000a003b0034
:1013a00082817100610164008100d1000080d3005e
:1013b0008984d3000884d3008b05e8000442e80048
:1013c000f7ff3a00070037000804440089844c0006
:1013d00000004800818048008b05e9000442e900d4
:1013e000f9ff3a00030007004f05be004f04be009e
:1013f0000000060081002000618055000b003d00c8
:101400000b00200061fe2f000100e1001d003400f0
:1014100082817100610164008904d1000884d300d5
:101420000000e800faff3a0071002000610064004b
:1014300003007000020060000900320061044400f3
:10144000e0844c000988a500050032008b05e80007
:101450006808e10002003a008904d1000884d30042
:10146000f20f20000258e10005003d00c75ddd00dd
:10147000f907b200898075000800780000000600b6
:101480000bf827008b007800000005000004be0068
:1014900014fc07000003be000405be000200be00ed
:0c14a00010fc0700844f750000000600df
:020000040000fa
:1014ac00496e000069630000696100006e64000011
:1014bc006f2000005369000073740000656d00001c
:1014cc00612000004469000066750000736f000025
:1014dc000a0000005265000066650000726500009d
:1014ec006e63000069610000203d000000450000b3
:1014fc00727200006f720000203d0000004400007a
:10150c0065720000697600006164000061200000d3
:10151c00646500006c20000045720000726f0000d2
:08152c00722000003d000000e8
:020000040000fa
:101534000000fa001622ef001822ef00000220003b
:10154400f0108800b010800000f0a000b0108800f7
:10155400c010800000a0a000c01088008f00a80068
:101564000105800080ff2f00008060006000b30050
:10157400000588008700a9000080fa00000006002a
:101584000000fa008700a90000c8bf000001fb00aa
:10159400e0108000804078001080200000004100ae
:1015a4000148780000c8bf000040e80000e8b70028
:1015b40000c8bf000000fb008000e900108020008c
:1015c4000080400010407800ea4f50000e003200c6
:1015d40000c8bf00f44f50001b003a000b00370056
:1015e40000c8bf008000fb00108020000080400085
:1015f4008040eb000148780000c8bf000040e800cc
:1016040000e8b700010037000000000000c8bf0078
:10161400f44f5000f2ff3a0011802000914078000e
:10162400e0c2b30080cf50000600340011802000d7
:101634009140780030c4b30080cf500001003c00da
:10164400030007000068ef000080fa0000000600b5
:101654000400fa0011c0b3000e80e80001487800cd
:101664000040eb00004f780011c0b3000e80e8008a
:101674000148780011c0b3000e00e800014878006a
:101684001b0037001e4078008e80e80091407800ef
:101694008180fb000088b90000007800004f7800ca
:1016a4000e00e800104078008080fb0010802000cd
:1016b40000804000104078009e40400000cdb30000
:1016c40000cf40000e80e800104078006a00b900a6
:1016d400800078000e80e800014878000e00e800e1
:1016e400104078008040e8000e00e80001487800cf
:1016f4000e00e800104078008080fb00108020007d
:101704000080400010407800ea4f5000ddff3a00ae
:101714002180200091407800f0c2b30080cf5000b7
:101724000800320001c8bf000000fb00e2fd2f00ea
:10173400000141009e4078005081200000004100db
:10174400014878000080fa00000006000200fa0058
:10175400000f7800040037001e0078001040780065
:10176400070007001e0fe8001e00780010407800f4
:101774000004e000f8ff3a000080fa0000000600d0
:101784000200fa00004f780000000000c110800041
:1017940000102000008060000000e000fbff320029
:1017a4001e80fb00d01088000080fa0000000600b4
:1017b4000400fa008e80e800804878000e80e8007b
:1017c400104078000004e00007003d00d0c2b300e0
:1017d400ebff07000e80e800104078008040ea002c
:1017e4000e80e80001487800a0002000000f780077
:1017f400040037001e0078006a00b9000000780079
:10180400000f78000e80e800104078000000fb0014
:101814009e00780001017800110009000200d80040
:101824008000fd00800078000e80e8001040780001
:101834000000fb00808f5000eeff3a001e0178008c
:10184400706626000090b900c288de004f90de006a
:1018540000805000000f78001c0037000e80e80064
:10186400104078000000fb009e0078000101780021
:10187400110009000200d800004078000043b000c5
:10188400bfff07000e80e800104078000000fb0056
:101894009e00780001017800110009000200d800c0
:1018a4008000fd00800078000e80e8000148780088
:1018b4001e017800706626000090b900c288de0020
:1018c4004f90de0000805000000f78001e0078006a
:1018d4000000e000e1ff3c000080fa000000060088
:1018e4000c00fa00881f7800680147000089be00d8
:1018f40018c0b300680047006011b8001000be00b3
:10190400cffa07000000e000010035000044eb00be
:101914000804e00007003200d0c2b30098ff0700bb
:10192400680047001000be0001f0a20068014700f3
:101934000089be00680047001000be00c4fa07001a
:101944008000780064004700014878006400470084
:10195400104078000000fb00cf80de00ddfa0700b5
:10196400680247000001be001400be00f1fa07003f
:10197400680147000089be00680047000200240097
:10198400c36124001000be00b7fc070068014700d3
:101994000089be00680047001000be00acfa0700d2
:1019a4006601470000097800a10020000e80e800cd
:1019b40001087800060037000e80e8001000780067
:1019c4006a00b900800078000e80e8000108780001
:1019d40064004700104078000000fb008e80e8009f
:1019e4009100780001017800110009000200d8007c
:1019f4008000fd00800078006400470010407800fb
:101a04000000fb00808f5000ebff3a000e80e800de
:101a140010017800706626000090b900c288de00cc
:101a24004f90de00808050000e80e80001087800ae
:101a340064004700104078000000fb00000f7800ad
:101a44001a0037009e0078000e80e800100078002d
:101a540000017800110009008200d80000407800dd
:101a64000043b00046ff07009e0078000e80e800a7
:101a74001000780000017800110009008200d800ed
:101a84008000fd00000f78000e80e800100178004f
:101a9400706626000090b900c288de004f90de0018
:101aa400808050000e80e800010878000e80e80075
:101ab400100078000000e000e2ff3c00e0c2b30048
:101ac4002fff0700813e20000e80e8000108780007
:101ad40066004700100f78001a0037009e00780057
:101ae4000e80e80010007800000178001100090061
:101af4008200d800004078000043b00020ff0700b7
:101b04009e0078000e80e800100078000001780044
:101b1400110009008200d8008000fd00000f780049
:101b24000e80e80010017800706626000090b9006d
:101b3400c288de004f90de00808050000e80e800f6
:101b4400010878000e80e800100078000000e00032
:101b5400e2ff3c0000c2b30009ff07004f04780015
:101b64000080fa00000006000000fa000080eb008c
:101b7400100888000021ef008460a90000012800fb
:101b8400200888008c60a800a104800000002700c1
:101b940001007000a00488008460a9000080fa009d
:101ba400000006000000fa000080fa0000000600b1
:101bb4000000fa000080eb0040158800cb62a90009
:101bc400c762a8000080fa00000006000400fa00c2
:101bd4000040eb00004f78008040eb000e00e8006e
:101be400014878008040eb000e80e800014878004e
:101bf4003768ef000021ef00c762a900cb62a9009b
:101c040000f92500110020000b020700c762a8009c
:101c14000300370037c8bf00e14f50000600320010
:101c24004116800000802000008060000000e00079
:101c3400f8ff3a000100370000000000800c20008b
:101c440001002000fc0107004116800000802000f4
:101c5400008060000000e00001003a001e4fe80030
:101c64000019200001002000f30107004116800044
:101c740000802000008060000000e00006003200c8
:101c84001e4fe8000500370037c8bf00e14f500081
:101c940008003200010037000000000041168000f7
:101ca40000802000008060000000e000f6ff3a00a1
:101cb40001003700000000002c00070059e8b700bd
:101cc4002a0007002900070058e8b700270007008a
:101cd4002600070036e8b70037c8bf00e14f5000c0
:101ce4000a003a0011c0b3000e00e8000148780071
:101cf4003768ef000e80e800104078008040e8006c
:101d04000e80e800014878000021ef000e00e80092
:101d140010407800e14f500004003a000e80e800c3
:101d240010407800e54f5000b3ff36008040eb00d0
:101d34000e00e800014878000e80e80010407800aa
:101d4400e64f500005003a005868ef005968ef006c
:101d54008040eb000e80e8000148780058c8bf00be
:101d640031e8b7000080fa00000006000200fa0023
:101d7400881f78000040eb00004f780081c0b3005a
:101d84000e00e800014878000b0037001e80fb00bd
:101d940000004000004478000f0007000040740079
:101da400004f78000e00e800104078008040e90001
:101db4000e00e800014878000e00e80010407800aa
:101dc4000004e000f1ff3a001e4078004f04780060
:101dd4000080fa00000006000200fa000040eb0058
:101de400004f78000300370037c8bf00e14f5000b0
:101df4000600320041168000008020000080600050
:101e04000000e000f8ff320001003700000000008d
:101e14001004200001002000870107004116800003
:101e240000802000008060000000e000020032001a
:101e34000040eb00004f7800e00620000100200085
:101e44007d010700411680000080200000806000b2
:101e54000000e0000d00320010c0b300004f780015
:101e64000300370037c8bf00e14f500006003200be
:101e74004116800000802000008060000000e00027
:101e8400f8ff3a0001003700000000001e4078000f
:101e94000080fa00000006000200fa000040eb0097
:101ea400004f7800818520009140780059c8bf0018
:101eb40080c040000e00e8000148780036c8bf002a
:101ec4008e00e8009140780080cf500002003a0074
:101ed40010c0b300004f78001e4078000080fa0064
:101ee400000006000000fa00d222ef00d622ef0024
:101ef400d722a8001cff07008dfd07002cff070058
:101f0400002d2100310120004b010700d722a90038
:101f140060a528000dfe0700108020000bfe0700be
:101f24002aff070000a7280008fe070027c8bf00f3
:101f34001ffe0700a0c0b30011fe07003100070018
:101f4400d0a7280001fe070038c8bf0018fe07000c
:101f5400a0c0b3000afe070050a82800fbfd07003c
:101f640039c8bf0012fe0700a0c0b30004fe07007a
:101f740040c5b30002fe070031c8bf000cfe0700d5
:101f840080c4b300fefd070059c8bf008080fb0079
:101f9400d0cc2c000008b8004308de0000407800d4
:101fa4000043b000f6fd070059c8bf000081fb00e4
:101fb400d0cc2c000010b8004308de006a00b90041
:101fc4000000780000005100004078000043b00099
:101fd400ebfd0700a0c0b300e9fd070038c8bf004f
:101fe4008c0007009b000700d2000700a042880075
:101ff400b142880000b42400c10420000e0107008f
:10200400c5ff37000000fa0027c8bf0080407800f1
:1020140031c8bf0000c0500038e8b70038c8bf005e
:10202400804078003ac8bf0000c0500039e8b700cb
:1020340038c8bf003ae8b7000080fa000000060084
:102044000600fa00e4004700804878006400470076
:1020540010407800eb4f500004003e0000002000c8
:1020640001f82300008fbe0014003700640047000d
:1020740010407800f34f50000e003e00640047000b
:10208400104078000080fb00cf80de0011f90700cb
:10209400020020000310240014fa07000001be000f
:1020a400000020000102240022f90700008fbe0076
:1020b400020037006000b800008fbe001e00be00a2
:1020c4000080fa00000006000600fa00e400470061
:1020d400804878006400470010407800eb4f5000bf
:1020e40003003e006000b800008fbe0025003700ea
:1020f4006400470010407800f34f50000d003e008c
:1021040064004700104078000080fb00cf80de00b0
:10211400f0f807000200200003102400f3f9070080
:102124000200200003fc230002f90700008fbe0018
:10213400140037006400470010407800fb4f500043
:102144000e003e0064004700104078000080fb0051
:10215400cf80de00dff80700020020000310240017
:10216400e2f907000001be0000002000010624007f
:10217400f0f80700008fbe00020037006000b800ce
:10218400008fbe001e00be000080fa0000000600a2
:102194000600fa00e4004700804878006400470025
:1021a40010407800f34f500003003e006000b80078
:1021b400008fbe0014003700640047001040780010
:1021c400fb4f50000d003e006400470010407800b3
:1021d4000080fb00cf80de00bef807000200200074
:1021e40003102400c1f907000200200003022400a8
:1021f400d0f80700008fbe00030037000000200065
:1022040001f82300008fbe001e00be000080fa000b
:10221400000006000200fa00004f78001e4078001b
:1022240087ff0700e0418800f14188001e407800e4
:10223400a5ff070000428800114288001e40780074
:10224400d3ff070020428800314288000080fa0052
:10225400000006000000fa00881f78006000b80043
:1022640040428800514288006000b8006042880003
:10227400714288006000b800804288009142880062
:10228400e0418000f141800018c0b3006011b80043
:102294006df807000000e00001003c000044eb0082
:1022a4000804e00004003200e0418000f1418000b5
:1022b4004042880051428800004280001142800060
:1022c40018c0b3006011b8005ff807000000e00018
:1022d40001003c000044eb000804e000040032006c
:1022e40000428000114280006042880071428800f0
:1022f400204280003142800018c0b3006011b80051
:1023040051f807000000e00001003c000044eb002d
:102314000804e000040032002042800031428000c2
:1023240080428800914288004f0478000080fa00bf
:10233400000006000400fa00881f78006000b8005e
:10234400008fbe00404280005142800018c0b3009c
:102354006011b8003cf807000000e00001003c00f8
:102364000044eb000804e000090032004042800011
:10237400514280003233230033e323003afa07004a
:102384000001be001e00be0073f80700008fbe00ef
:10239400604280007142800018c0b3006011b80030
:1023a40029f807000000e00001003c000044eb00b5
:1023b4000804e0000900320060428000714280009d
:1023c4000200200003f0230027fa07000001be00ea
:1023d4001e00be0060f80700008fbe00804280002f
:1023e4009142800018c0b3006011b80016f80700cd
:1023f4000000e00001003c000044eb000804e000a1
:102404000900320080428000914280003233230070
:1024140033f5230014fa07000001be001e00be00bd
:102424004df80700008fbe001e00be004f04780068
:082434000080fa000000060020
:020000040000fa
:10243c00f03fb1000180b10006003500ee03090049
:10244c0000000000403fb1000180b100fbff3d00e7
:10245c001000b000203fb0000200350000800900e1
:08246c00000000000000060062
:020000040000fa
:102474000008000058000000000000005808000098
:1024840002000000020000000a1400005a080000c4
:0c2494000200000000000000000000003a
:020000040000fa
:0200000401f009
:04000000e2bb00005f
:020000040000fa
:0200000401f009
:04000400ff7f00007a
:020000040000fa
:0200000401f009
:04000800ffff0000f6
:020000040000fa
:0200000401f009
:04001800ffff0000e6
:00000001FF
