:020000040000fa
:080000000001040000000000f3
:020000040000fa
:040008001c020000d6
:020000040000fa
:04000c001c020000d2
:020000040000fa
:040010001c020000ce
:020000040000fa
:040014001c020000ca
:020000040000fa
:040018001c020000c6
:020000040000fa
:04001c001c020000c2
:020000040000fa
:040020001c020000be
:020000040000fa
:040024001c020000ba
:020000040000fa
:040028001c020000b6
:020000040000fa
:04002c001c020000b2
:020000040000fa
:040030001c020000ae
:020000040000fa
:04003400c8010000ff
:020000040000fa
:040038001c020000a6
:020000040000fa
:04003c001c020000a2
:020000040000fa
:040040001c0200009e
:020000040000fa
:040044001c0200009a
:020000040000fa
:040048001c02000096
:020000040000fa
:04004c001c02000092
:020000040000fa
:040050001c0200008e
:020000040000fa
:040054001c0200008a
:020000040000fa
:040058001c02000086
:020000040000fa
:04005c001c02000082
:020000040000fa
:040060001c0200007e
:020000040000fa
:040064001c0200007a
:020000040000fa
:040068001c02000076
:020000040000fa
:04006c001c02000072
:020000040000fa
:040070001c0200006e
:020000040000fa
:040074001c0200006a
:020000040000fa
:040078001c02000066
:020000040000fa
:04007c001c02000062
:020000040000fa
:040080001c0200005e
:020000040000fa
:040084001c0200005a
:020000040000fa
:04008800f80100007b
:020000040000fa
:04008c001c02000052
:020000040000fa
:040090001c0200004e
:020000040000fa
:040094001c0200004a
:020000040000fa
:040098001c02000046
:020000040000fa
:04009c001c02000042
:020000040000fa
:0400a0001c0200003e
:020000040000fa
:0400a4001c0200003a
:020000040000fa
:0400a8001c02000036
:020000040000fa
:0400ac001c02000032
:020000040000fa
:0400b0001c0200002e
:020000040000fa
:0400b4001c0200002a
:020000040000fa
:0400b8001c02000026
:020000040000fa
:0400bc001c02000022
:020000040000fa
:0400c0001c0200001e
:020000040000fa
:0400c4001c0200001a
:020000040000fa
:0400c8001c02000016
:020000040000fa
:0400cc001c02000012
:020000040000fa
:0400d0001c0200000e
:020000040000fa
:0400d4001c0200000a
:020000040000fa
:0400d8001c02000006
:020000040000fa
:040108001c020000d5
:020000040000fa
:04010c001c020000d1
:020000040000fa
:040110001c020000cd
:020000040000fa
:040114001c020000c9
:020000040000fa
:040118001c020000c5
:020000040000fa
:04011c001c020000c1
:020000040000fa
:040120001c020000bd
:020000040000fa
:040124001c020000b9
:020000040000fa
:040128001c020000b5
:020000040000fa
:04012c001c020000b1
:020000040000fa
:040130001c020000ad
:020000040000fa
:04013400c8010000fe
:020000040000fa
:040138001c020000a5
:020000040000fa
:04013c001c020000a1
:020000040000fa
:040140001c0200009d
:020000040000fa
:040144001c02000099
:020000040000fa
:040148001c02000095
:020000040000fa
:04014c001c02000091
:020000040000fa
:040150001c0200008d
:020000040000fa
:040154001c02000089
:020000040000fa
:040158001c02000085
:020000040000fa
:04015c001c02000081
:020000040000fa
:040160001c0200007d
:020000040000fa
:040164001c02000079
:020000040000fa
:040168001c02000075
:020000040000fa
:04016c001c02000071
:020000040000fa
:040170001c0200006d
:020000040000fa
:040174001c02000069
:020000040000fa
:040178001c02000065
:020000040000fa
:04017c001c02000061
:020000040000fa
:040180001c0200005d
:020000040000fa
:040184001c02000059
:020000040000fa
:04018800f80100007a
:020000040000fa
:04018c001c02000051
:020000040000fa
:040190001c0200004d
:020000040000fa
:040194001c02000049
:020000040000fa
:040198001c02000045
:020000040000fa
:04019c001c02000041
:020000040000fa
:0401a0001c0200003d
:020000040000fa
:0401a4001c02000039
:020000040000fa
:0401a8001c02000035
:020000040000fa
:0401ac001c02000031
:020000040000fa
:0401b0001c0200002d
:020000040000fa
:0401b4001c02000029
:020000040000fa
:0401b8001c02000025
:020000040000fa
:0401bc001c02000021
:020000040000fa
:0401c0001c0200001d
:020000040000fa
:0401c4001c02000019
:020000040000fa
:0401c8001c02000015
:020000040000fa
:0401cc001c02000011
:020000040000fa
:0401d0001c0200000d
:020000040000fa
:0401d4001c02000009
:020000040000fa
:0401d8001c02000005
:020000040000fa
:100200000f8220000eff20000e0188000000000079
:10021000000020000000e000020032000001200089
:100220002002880014000700850007000000e0009d
:1002300003003a0020d42000010020000200370013
:100240000000200001002000810f7000010032003a
:1002500014000700000020000000e000020032004f
:100260000000020000000000dc0a020000000000a4
:100270000040da000000fe004440a9008003200096
:100280000000e0000300320000002000a001880010
:100290004440a800000006008a1f78008b1f7800e9
:1002a0000000060091018800800478000000eb0047
:1002b0001a003700e284440032a0b4009905ba0065
:1002c000e284440032a0b4009906ba00e2844400fb
:1002d00032a0b4000006eb00476fde00fd07b2005d
:1002e000636ce10003003a00ebff07000000eb0045
:1002f0000a003700606ce10004003a00005deb008a
:100300008b05e900fdff3e00040037006168e10055
:10031000010032000086eb000b00070019c7ba008d
:100320001905ba000e04e00003003a000a00e000dc
:10033000e0ff3a0000000600fe07b2009e018800c0
:100340008a047800f5ff3700395dba008b05e900b3
:100350000c003200295dba008b05e900080032006c
:100360000c00e00003003a00e284440032a0b40034
:10037000f5ff370019ddba008b05e900faff3a00f6
:100380008904e800e184440032a0b40000000600c3
:10039000809fbe003400f80000002000a00188000b
:1003a0000000fa00a01680004300de0061406000fb
:1003b0000004a200614060000080fb00610060005a
:1003c0004300dd00a11680000130a1000100700093
:1003d000a016880010c0b30019e8b7008460a90017
:1003e0000080fa003400f9004f00be000040060013
:1003f0003600f800809fbe00829fbe00849fbe0032
:10040000869fbe003400f80000002000a001880094
:100410000000fa00ee0207000080fa003400f90044
:100420004f03be004f02be004f01be004f00be0092
:100430003600f900004006000040da000000fe002f
:100440000000050014002000290237000001be0052
:10045000220007000470a70003f0a1006509b100a5
:10046000160032000d0035006828e1000600350056
:10047000f0ff2f00f1ff27000300e00013003b0016
:1004800001002800000005000000400081804800b5
:100490008502e900fcff3a0008003700f88f4200af
:1004a00002003c008000eb00000005008100d1004c
:1004b0000080d3008502e800fcff3a000300e00062
:1004c00002003b0060001000e08018000000060001
:1004d0004f89de008201780020023700c70ade0063
:1004e000f107b200f50fb20008003200e1cf420080
:1004f000020032000170a00024000500810f70008e
:10050000010032000408050044000500810f70005e
:1005100002003a00140005008502e90000004000d6
:1005200081c04800fcff3b000170a00024000500d2
:1005300007f82700078361000638e10004003a004d
:10054000f7072000878361008703710001003a00ec
:1005500003f0a200889fbe008a9fbe008c9fbe0051
:10056000470ade000480a100c71ade000580a10052
:10057000070028000785600087856100f70f2000cd
:100580000720e1009e0032000728e1009c003200b5
:10059000010678000400e000b4003200f7072000f4
:1005a000878060000170a0000500e000c0003200fc
:1005b000f7072000878161000370a0000506520044
:1005c0000f003a000b50e1000b0032000308e1007d
:1005d00002003a000200e1007e00320002045000f6
:1005e00083845800040031000001fd008101fd00fa
:1005f0008402fd008a05fd006044b8002100370038
:100600000520e10005003d000001fd008101fd0025
:100610008402fd008a05fd00050652007a60e100b3
:10062000050035000170a1004722dd0084807000c4
:100630008a807000630037006044b800ef026600f3
:1006400007ff2f00070666000500e00006003400e3
:10065000f08312008714dd000511de00071bdd00aa
:10066000060171008519de007060e10005003500ab
:100670000904780082047800030178008001eb000f
:10068000700656000b50e10003003a0002004000e3
:10069000838048000400370060041400e0841c00dc
:1006a00002005800838058000188a3000600320031
:1006b0008100d1000080d3008984d3000884d30056
:1006c0000402e800270037000178a30025003a0063
:1006d0000100e000030032008186cf0069865600e9
:1006e0000a0037008c0020000000e00004003a00ff
:1006f00009007800880478000004eb0070025200c2
:100700008086cf000d0646000c06e9007060e1000f
:100710000600350080007800090078008804780021
:100720000004eb0070065600700252000c00e0005e
:100730000c0034008c08dd00f00316000703de0017
:10074000868070000c00dd00074bde0006007000a4
:100750008c4cdd000743de00868474000c44dd0011
:100760000c0252006120e1002000350061016000b0
:100770000700280087816400f7ff27008783640053
:10078000070374000300e0000600320082037300d8
:10079000040032000000e800e08048000188a30067
:1007a0000e003a00f70f20000720e1004a003d004c
:1007b0000170a1004722dd00810072008a80700074
:1007c0000000be004f06be004f05be004f04be0035
:1007d000000006006000b800faff37008100d10079
:1007e0000080d3000402e800eeff37000401780027
:1007f00089017400c20007008a807000f1ff370091
:1008000018010700070278000001fd008101fd00ca
:100810001401070087027800850372000778a3009f
:10082000040032000001fd008101fd0027010700e6
:10083000e4ff3700850362000768a3000800320068
:100840000b50e10003003200f0ff2f00f1ff270002
:10085000dcff37000001fd008101fd00d9ff3700fa
:100860000468a300d7ff3200faff3700f8ff270023
:10087000888360000b003a000000e00009003a00a5
:100880008303640082837300020032000200be0012
:10089000ccff37000b50e100ceff3a000200be0053
:1008a000c8ff370014002000810064003eff3700bd
:1008b000f8ff27008883610004003a000200e0008e
:1008c00002003a008c007800beff370015002000bf
:1008d0008301640039ff370001f827000000200081
:1008e00081007500b7ff3700038368000700280008
:1008f00007036300470ade000480a100c71ade0078
:100900000580a100f70f20000720e100420032001f
:100910000728e10040003200889fbe008a9fbe0089
:100920008c1f7800f107b200f307b2000400e0006a
:10093000640032000170a0000500e0006800320091
:100940000370a00085054200eb07b1000204b80067
:100950000302b8008484440060854a00020ab8009b
:10096000848444000a854a00030ab800040545004f
:10097000040033000804d0008984d2000a85d20024
:100980008b05e9006158e1003d00350002102000b0
:10099000090161000308200089816100f707200038
:1009a0008783640008867300c84cde00c853dd00ee
:1009b000878474004855de000300e0000600320022
:1009c00082037600040032008904e80060054d00cf
:1009d0000a88a3000c003a00f70f20000758e10036
:1009e00044003d000a70a100c75ddd000a85750066
:1009f0008a007300090078004f0678004f05be009a
:100a00004f04be00000006000a05d1008984d3000f
:100a10008b05e800f0ff3700881f78000604780097
:100a200090000700070278000001fd008101fd0031
:100a30008c00070087027800850372000778a30006
:100a4000050032000001fd008101fd009f0007004c
:100a50004f04780000000600850372000748a300d9
:100a600003003200f0ff2f00f1ff2700f8ff3700ee
:100a70000000200001f8270088807000f4ff370094
:100a8000880178004848dd00808171004848de0018
:100a9000c850dd0001007000c850de000604780078
:100aa0000b0178001600070088807000d2ff370025
:100ab0000500e00005003200170020003a000700a2
:100ac0009dff370081037000f9ff3a00860078002f
:100ad0004f0678004f05be004f04be000000050021
:100ae00083037100f9ff3200270020002e00070069
:100af00094ff370001f8270086807000f4ff37006c
:100b00000100e00026003200610111007810e100d0
:100b100023003c006022b8007010e10004003500a2
:100b200080027800010078008000eb007001510025
:100b30000200e0000900340070031100062add0005
:100b4000822ade008603dd00878272000200de005a
:100b5000860bdd00070070008208de0084817100d2
:100b6000f4ff2700048262008481710004002800e1
:100b7000848262006102600005f0a60000000600a9
:100b800004827100070032000000e800e0804800a5
:100b9000000006000002be006000b800efff370052
:100ba0006000b80000000600889fbe000004eb0053
:100bb0006138e10016003a000100e00008003a0048
:100bc000c800de004800dd00880020000100e000d1
:100bd00003003a00c800de004800dd00680444005d
:100be0008184cf00e9845400060034008908dd00c8
:100bf000f08314008703de00878070000900dd00a9
:100c000009044400610214004f04be000000060005
:100c10000300e00008003a00c811de004811dd00c2
:100c2000880020000300e00003003a00c811de0045
:100c30004811dd00680444008384cf00e984540037
:100c4000060034008919dd00f08314008713de00ec
:100c5000878171000911dd0009044400e1021400dc
:100c6000e9ff37002700200001f0a700170020004f
:100c7000470bde00f60fb200040032000643e80026
:100c80000a0032004702b3000000060001037800aa
:100c9000f607b2000603700002003a000703b30033
:100ca000000006008702b300000006000103780080
:100cb000f607b20006037000020032000770a000c1
:100cc000000006000760a000000006000478a300f2
:100cd000040032000578a300030032000168a3007d
:100ce00001003a000200be000160a0000000060002
:100cf000889fbe008a9fbe00841f78007c0007008a
:100d00004f00780011003300f0ff2f00838f6c003c
:100d100006003b00040565000a00a7000800370034
:100d200009f0a6001000200008003700820f5400d0
:100d3000838f5c00030039001000200001003e009a
:100d40000000200009f0a7000000ea004f05be00e7
:100d50004f04be000000e00000000600881f78007d
:100d6000030478000300e00007003d00600010006d
:100d7000e080180060011900e081190002003b00ca
:100d800001f02d00030037000400070008f0a70061
:100d900001f0a0004f04780000000600889fbe000c
:100da0008a9fbe00008270000402710004827100fc
:100db000260032000004be000200be006011b80030
:100dc0006b092000950220000182cf000a00390043
:100dd0000541b1000082cf00070039000541b10094
:100de0000982cf00040039000541b1000882cf001c
:100df000010039000541b1000542520012003200e5
:100e00000a003b0082817100610164008100d10011
:100e10000080d3008984d3000884d3008b05e800c8
:100e20000442e800f7ff3a000700370008044400d6
:100e300089844c0000004800818048008b05e9004f
:100e40000442e900f9ff3a00030007004f05be0025
:100e50004f04be00000006008100200061805500a4
:100e60000b003d000b00200061fe2f000100e1009f
:100e70001d00340082817100610164008904d10089
:100e80000884d3000000e800faff3a007100200057
:100e9000610064000300700002006000090032007d
:100ea00061044400e0844c000988a500050032007c
:100eb0008b05e8006808e10002003a008904d100cf
:100ec0000884d300f20f20000258e10005003d0025
:100ed000c75ddd00f907b200898075000800780061
:100ee000000006000bf827008b00780000000500ca
:100ef0000004be0079fd07000003be000405be002b
:100f00000200be0075fd0700844f7500000006005a
:020000040000fa
:100f1000496e000069630000696100006e640000b2
:100f20006f2000005369000073740000656d0000bd
:100f3000612000004469000066750000736f0000c6
:100f40000a00000045720000726f0000722000006d
:100f50003d000000446500007269000076610000f9
:100f60006461000020640000656c00002045000002
:100f7000727200006f720000203d0000000000004f
:020000040000fa
:100f80000000fa001622ef001822ef0000022000f5
:100f9000f0108800b010800000f0a000b0108800b1
:100fa000c010800000a0a000c01088008f00a80022
:100fb0000105800080ff2f00008060006000b3000a
:100fc000000588008700a9000080fa0000000600e4
:100fd0000000fa008700a90000c8bf000001fb0064
:100fe000e010800080407800108020000000410068
:100ff0000148780000c8bf000040e80000e8b700e2
:1010000000c8bf000000fb008000e9001080200045
:101010000080400010407800ea4f50000e0032007f
:1010200000c8bf00f44f50001b003a000b0037000f
:1010300000c8bf008000fb0010802000008040003e
:101040008040eb000148780000c8bf000040e80085
:1010500000e8b700010037000000000000c8bf0032
:10106000f44f5000f2ff3a001180200091407800c8
:10107000e0c2b30080cf5000060034001180200091
:101080009140780030c4b30080cf500001003c0094
:101090000a0107000068ef000080fa000000060067
:1010a0000200fa00000f7800040037001e007800ec
:1010b00010407800070007001e0fe8001e007800af
:1010c000104078000004e000f8ff3a000080fa00c9
:1010d000000006000200fa00004f78000000000047
:1010e000c110800000102000008060000000e000bf
:1010f000fbff32001e80fb00d01088000080fa0049
:10110000000006000400fa008e80e80080487800a5
:101110000e80e800104078000004e00007003d0069
:10112000d0c2b300ebff07000e80e800104078004b
:101130008040ea000e80e80001487800a00020000e
:10114000000f7800040037001e0078006a00b90024
:1011500000007800000f78000e80e8001040780052
:101160000000fb009e0078000101780011000900da
:101170000200d8008000fd00800078000e80e800aa
:10118000104078000000fb00808f5000eeff3a0016
:101190001e017800706626000090b900c288de004b
:1011a0004f90de0000805000000f78001c003700d8
:1011b0000e80e800104078000000fb009e007800e0
:1011c00001017800110009000200d80000407800f9
:1011d0000043b000bfff07000e80e8001040780019
:1011e0000000fb009e00780001017800110009005a
:1011f0000200d8008000fd00800078000e80e8002a
:10120000014878001e017800706626000090b90041
:10121000c288de004f90de0000805000000f780092
:101220001e0078000000e000e1ff3c000080fa00b2
:10123000000006000c00fa00881f780068014700d3
:101240000089be0018c0b300680047006011b800f4
:101250001000be007bfc07000000e000010035002c
:101260000044eb000804e00007003200d0c2b300e5
:1012700098ff0700680047001000be0001f0a200c0
:10128000680147000089be00680047001000be00ea
:101290006efc070080007800640047000148780079
:1012a00064004700104078000000fb00cf80de00a3
:1012b00087fc0700680247000001be001400be0062
:1012c0009bfc0700680147000089be0068004700da
:1012d00002002400c36124001000be0082fd07004c
:1012e000680147000089be00680047001000be008a
:1012f00056fc07006601470000097800a1002000a5
:101300000e80e80001087800060037000e80e80033
:10131000100078006a00b900800078000e80e800b4
:101320000108780064004700104078000000fb00ce
:101330008e80e8009100780001017800110009001a
:101340000200d8008000fd008000780064004700a3
:10135000104078000000fb00808f5000ebff3a0047
:101360000e80e80010017800706626000090b90039
:10137000c288de004f90de00808050000e80e800c2
:101380000108780064004700104078000000fb006e
:10139000000f78001a0037009e0078000e80e800e9
:1013a0001000780000017800110009008200d800c8
:1013b000004078000043b00046ff07009e00780020
:1013c0000e80e8001000780000017800110009008c
:1013d0008200d8008000fd00000f78000e80e80039
:1013e00010017800706626000090b900c288de0007
:1013f0004f90de00808050000e80e80001087800e9
:101400000e80e800100078000000e000e2ff3c00e1
:10141000e0c2b3002fff0700813e20000e80e800ed
:101420000108780066004700100f78001a003700a6
:101430009e0078000e80e80010007800000178001f
:10144000110009008200d800004078000043b0007d
:1014500020ff07009e0078000e80e8001000780052
:1014600000017800110009008200d8008000fd0012
:10147000000f78000e80e8001001780070662600ea
:101480000090b900c288de004f90de0080805000de
:101490000e80e800010878000e80e8001000780057
:1014a0000000e000e2ff3c0000c2b30009ff0700bb
:1014b0004f0478000080fa00000006000400fa00e3
:1014c00011c0b3000e80e8000148780011c0b300dd
:1014d0000e00e800014878001b0037001e4078002d
:1014e0008e80e800914078008180fb000088b90080
:1014f00000007800004f78000e00e80010407800ef
:101500008080fb00108020000080400010407800a8
:101510009e40400000cdb30000cf40000e80e800a8
:10152000104078006a00b900800078000e80e80062
:10153000014878000e00e800104078008040e80084
:101540000e00e800014878000e00e8001040780026
:101550008080fb0010802000008040001040780058
:10156000ea4f5000ddff3a000080fa00000006005c
:101570000000fa000080eb00100888000021ef0056
:101580008460a90000012800200888008c60a80061
:10159000a10480000000270001007000a004880062
:1015a0008460a9000080fa00000006000000fa0034
:1015b0000080fa00000006000000fa00d222ef00ce
:1015c000d622ef00d722a800e9ff07006cfe070033
:1015d0000080eb0040158800cb62a900c762a8001c
:1015e000002d21003101200018010700d722a90099
:1015f00080782800aafe070010802000a8fe0700bf
:101600004e0007003e000700207a2800a4fe0700d5
:1016100015c8bf00bbfe0700a0c0b300adfe0700a9
:10162000a07a28009efe070016c8bf00b5fe07007e
:10163000a0c0b300a7fe070040c5b300a5fe070089
:101640001dc8bf008080fb00d0cc2c000008b80073
:101650004308de00004078000043b0009dfe070014
:101660001dc8bf000081fb00d0cc2c000010b800ca
:101670004308de006a00b900000078000000510055
:10168000004078000043b00092fe070000c2b300a3
:1016900090fe070080c4b3008efe07001ec8bf0086
:1016a0008080fb00d0cc2c000008b8004308de008e
:1016b000004078000043b00086fe07001ec8bf004f
:1016c0000081fb00d0cc2c000010b8004308de00e5
:1016d0006a00b90000007800000051000040780066
:1016e0000043b0007bfe0700a0c0b30079fe0700f6
:1016f00000b42400c1042000d4000700beff37005e
:101700000000fa00c1812000914078001dc8bf0090
:1017100000c0500015e8b70015c8bf008040780031
:1017200017c8bf0000c0500016e8b70015c8bf00ba
:1017300017e8b7000080fa00000006000400fa0075
:101740000040eb00004f78008040eb000e00e80006
:10175000014878008040eb000e80e80001487800e6
:101760001968ef000021ef00c762a900cb62a90051
:1017700000f9250011002000b4000700c762a8008e
:101780000300370019c8bf00e14f500006003200c7
:101790004116800000802000008060000000e00012
:1017a000f8ff3a000100370000000000800c200024
:1017b00001002000a50007004116800000802000e5
:1017c000008060000000e00001003a001e4fe800c9
:1017d00000192000010020009c0007004116800035
:1017e00000802000008060000000e0000600320061
:1017f0001e4fe8000500370019c8bf00e14f500038
:10180000080032000100370000000000411680008f
:1018100000802000008060000000e000f6ff3a0039
:1018200001003700000000002a0007001ee8b70092
:1018300028000700270007001de8b7002500070063
:101840002400070018e8b70019c8bf00e14f500096
:101850000a003a0011c0b3000e00e8000148780009
:101860001968ef000e80e800104078008040e80022
:101870000e80e800014878000021ef000e00e8002b
:1018800010407800e14f500004003a000e80e8005c
:1018900010407800e54f5000b3ff36008040eb0069
:1018a0000e00e800014878000e80e8001040780043
:1018b000e64f500005003a001d68ef001e68ef007b
:1018c0008040eb000e80e800014878000080fa00bc
:1018d000000006000200fa00881f78000040eb00bc
:1018e000004f780081c0b3000e00e8000148780086
:1018f0000b0037001e80fb00000040000044780011
:101900000f00070000407400004f78000e00e80050
:10191000104078008040e9000e00e800014878009f
:101920000e00e800104078000004e000f1ff3a00eb
:101930001e4078004f0478000080fa000000060086
:101940000200fa000040eb00004f7800030037006f
:1019500019c8bf00e14f5000060032004116800058
:1019600000802000008060000000e000f8ff3200ee
:1019700001003700000000001004200001002000da
:1019800032000700411680000080200000806000c7
:101990000000e000020032000040eb00004f780041
:1019a000e00620000100200028000700411680000a
:1019b00000802000008060000000e0000d00320088
:1019c00010c0b300004f78000300370019c8bf00f3
:1019d000e14f5000060032004116800000802000d8
:1019e000008060000000e000f8ff3a0001003700ce
:1019f000000000001e4078000080fa000000060091
:101a00000200fa000040eb00004f7800d181200076
:101a1000914078001ec8bf0080c040000e00e80062
:101a20000148780018c8bf008e00e8009140780097
:101a300080cf500002003a0010c0b300004f780081
:0c1a40001e4078000080fa000000060044
:020000040000fa
:101a4c00f03fb1000180b10006003500ee03090043
:101a5c0000000000403fb1000180b100fbff3d00e1
:101a6c001000b000203fb0000200350000800900db
:081a7c0000000000000006005c
:020000040000fa
:101a8400000800001c000000000000001c0800000a
:101a940004000000020000001a0a14000000000004
:041aa400000000003e
:020000040000fa
:0200000401f009
:04000000e2bb00005f
:020000040000fa
:0200000401f009
:04000400ff7f00007a
:020000040000fa
:0200000401f009
:04000800ffff0000f6
:020000040000fa
:0200000401f009
:04001800ffff0000e6
:00000001FF
